{
  "contractName": "ERC1155PresetMinterPauserSupply",
  "abi": [
    {
      "inputs": [
        {
          "internalType": "string",
          "name": "uri",
          "type": "string"
        },
        {
          "internalType": "uint256",
          "name": "_decimals",
          "type": "uint256"
        }
      ],
      "stateMutability": "nonpayable",
      "type": "constructor"
    },
    {
      "anonymous": false,
      "inputs": [
        {
          "indexed": true,
          "internalType": "address",
          "name": "admin",
          "type": "address"
        },
        {
          "indexed": true,
          "internalType": "address",
          "name": "addedAccount",
          "type": "address"
        }
      ],
      "name": "AddedToWhitelist",
      "type": "event"
    },
    {
      "anonymous": false,
      "inputs": [
        {
          "indexed": true,
          "internalType": "address",
          "name": "account",
          "type": "address"
        },
        {
          "indexed": true,
          "internalType": "address",
          "name": "operator",
          "type": "address"
        },
        {
          "indexed": false,
          "internalType": "bool",
          "name": "approved",
          "type": "bool"
        }
      ],
      "name": "ApprovalForAll",
      "type": "event"
    },
    {
      "anonymous": false,
      "inputs": [
        {
          "indexed": true,
          "internalType": "address",
          "name": "deployer",
          "type": "address"
        },
        {
          "indexed": false,
          "internalType": "uint256",
          "name": "timestamp",
          "type": "uint256"
        }
      ],
      "name": "Deployed",
      "type": "event"
    },
    {
      "anonymous": false,
      "inputs": [
        {
          "indexed": false,
          "internalType": "address",
          "name": "account",
          "type": "address"
        }
      ],
      "name": "Paused",
      "type": "event"
    },
    {
      "anonymous": false,
      "inputs": [
        {
          "indexed": true,
          "internalType": "address",
          "name": "admin",
          "type": "address"
        },
        {
          "indexed": true,
          "internalType": "address",
          "name": "removedAccount",
          "type": "address"
        }
      ],
      "name": "RemovedFromWhitelist",
      "type": "event"
    },
    {
      "anonymous": false,
      "inputs": [
        {
          "indexed": true,
          "internalType": "bytes32",
          "name": "role",
          "type": "bytes32"
        },
        {
          "indexed": true,
          "internalType": "bytes32",
          "name": "previousAdminRole",
          "type": "bytes32"
        },
        {
          "indexed": true,
          "internalType": "bytes32",
          "name": "newAdminRole",
          "type": "bytes32"
        }
      ],
      "name": "RoleAdminChanged",
      "type": "event"
    },
    {
      "anonymous": false,
      "inputs": [
        {
          "indexed": true,
          "internalType": "bytes32",
          "name": "role",
          "type": "bytes32"
        },
        {
          "indexed": true,
          "internalType": "address",
          "name": "account",
          "type": "address"
        },
        {
          "indexed": true,
          "internalType": "address",
          "name": "sender",
          "type": "address"
        }
      ],
      "name": "RoleGranted",
      "type": "event"
    },
    {
      "anonymous": false,
      "inputs": [
        {
          "indexed": true,
          "internalType": "bytes32",
          "name": "role",
          "type": "bytes32"
        },
        {
          "indexed": true,
          "internalType": "address",
          "name": "account",
          "type": "address"
        },
        {
          "indexed": true,
          "internalType": "address",
          "name": "sender",
          "type": "address"
        }
      ],
      "name": "RoleRevoked",
      "type": "event"
    },
    {
      "anonymous": false,
      "inputs": [
        {
          "indexed": true,
          "internalType": "address",
          "name": "operator",
          "type": "address"
        },
        {
          "indexed": true,
          "internalType": "address",
          "name": "from",
          "type": "address"
        },
        {
          "indexed": true,
          "internalType": "address",
          "name": "to",
          "type": "address"
        },
        {
          "indexed": false,
          "internalType": "uint256[]",
          "name": "ids",
          "type": "uint256[]"
        },
        {
          "indexed": false,
          "internalType": "uint256[]",
          "name": "values",
          "type": "uint256[]"
        }
      ],
      "name": "TransferBatch",
      "type": "event"
    },
    {
      "anonymous": false,
      "inputs": [
        {
          "indexed": true,
          "internalType": "address",
          "name": "operator",
          "type": "address"
        },
        {
          "indexed": true,
          "internalType": "address",
          "name": "from",
          "type": "address"
        },
        {
          "indexed": true,
          "internalType": "address",
          "name": "to",
          "type": "address"
        },
        {
          "indexed": false,
          "internalType": "uint256",
          "name": "id",
          "type": "uint256"
        },
        {
          "indexed": false,
          "internalType": "uint256",
          "name": "value",
          "type": "uint256"
        }
      ],
      "name": "TransferSingle",
      "type": "event"
    },
    {
      "anonymous": false,
      "inputs": [
        {
          "indexed": false,
          "internalType": "string",
          "name": "value",
          "type": "string"
        },
        {
          "indexed": true,
          "internalType": "uint256",
          "name": "id",
          "type": "uint256"
        }
      ],
      "name": "URI",
      "type": "event"
    },
    {
      "anonymous": false,
      "inputs": [
        {
          "indexed": false,
          "internalType": "address",
          "name": "account",
          "type": "address"
        }
      ],
      "name": "Unpaused",
      "type": "event"
    },
    {
      "inputs": [],
      "name": "DEFAULT_ADMIN_ROLE",
      "outputs": [
        {
          "internalType": "bytes32",
          "name": "",
          "type": "bytes32"
        }
      ],
      "stateMutability": "view",
      "type": "function",
      "constant": true
    },
    {
      "inputs": [],
      "name": "MINTER_ROLE",
      "outputs": [
        {
          "internalType": "bytes32",
          "name": "",
          "type": "bytes32"
        }
      ],
      "stateMutability": "view",
      "type": "function",
      "constant": true
    },
    {
      "inputs": [],
      "name": "PAUSER_ROLE",
      "outputs": [
        {
          "internalType": "bytes32",
          "name": "",
          "type": "bytes32"
        }
      ],
      "stateMutability": "view",
      "type": "function",
      "constant": true
    },
    {
      "inputs": [
        {
          "internalType": "address",
          "name": "account",
          "type": "address"
        },
        {
          "internalType": "uint256",
          "name": "id",
          "type": "uint256"
        }
      ],
      "name": "balanceOf",
      "outputs": [
        {
          "internalType": "uint256",
          "name": "",
          "type": "uint256"
        }
      ],
      "stateMutability": "view",
      "type": "function",
      "constant": true
    },
    {
      "inputs": [
        {
          "internalType": "address[]",
          "name": "accounts",
          "type": "address[]"
        },
        {
          "internalType": "uint256[]",
          "name": "ids",
          "type": "uint256[]"
        }
      ],
      "name": "balanceOfBatch",
      "outputs": [
        {
          "internalType": "uint256[]",
          "name": "",
          "type": "uint256[]"
        }
      ],
      "stateMutability": "view",
      "type": "function",
      "constant": true
    },
    {
      "inputs": [
        {
          "internalType": "uint256",
          "name": "id",
          "type": "uint256"
        }
      ],
      "name": "exists",
      "outputs": [
        {
          "internalType": "bool",
          "name": "",
          "type": "bool"
        }
      ],
      "stateMutability": "view",
      "type": "function",
      "constant": true
    },
    {
      "inputs": [
        {
          "internalType": "bytes32",
          "name": "role",
          "type": "bytes32"
        }
      ],
      "name": "getRoleAdmin",
      "outputs": [
        {
          "internalType": "bytes32",
          "name": "",
          "type": "bytes32"
        }
      ],
      "stateMutability": "view",
      "type": "function",
      "constant": true
    },
    {
      "inputs": [
        {
          "internalType": "bytes32",
          "name": "role",
          "type": "bytes32"
        },
        {
          "internalType": "uint256",
          "name": "index",
          "type": "uint256"
        }
      ],
      "name": "getRoleMember",
      "outputs": [
        {
          "internalType": "address",
          "name": "",
          "type": "address"
        }
      ],
      "stateMutability": "view",
      "type": "function",
      "constant": true
    },
    {
      "inputs": [
        {
          "internalType": "bytes32",
          "name": "role",
          "type": "bytes32"
        }
      ],
      "name": "getRoleMemberCount",
      "outputs": [
        {
          "internalType": "uint256",
          "name": "",
          "type": "uint256"
        }
      ],
      "stateMutability": "view",
      "type": "function",
      "constant": true
    },
    {
      "inputs": [
        {
          "internalType": "bytes32",
          "name": "role",
          "type": "bytes32"
        },
        {
          "internalType": "address",
          "name": "account",
          "type": "address"
        }
      ],
      "name": "hasRole",
      "outputs": [
        {
          "internalType": "bool",
          "name": "",
          "type": "bool"
        }
      ],
      "stateMutability": "view",
      "type": "function",
      "constant": true
    },
    {
      "inputs": [
        {
          "internalType": "address",
          "name": "account",
          "type": "address"
        },
        {
          "internalType": "address",
          "name": "operator",
          "type": "address"
        }
      ],
      "name": "isApprovedForAll",
      "outputs": [
        {
          "internalType": "bool",
          "name": "",
          "type": "bool"
        }
      ],
      "stateMutability": "view",
      "type": "function",
      "constant": true
    },
    {
      "inputs": [],
      "name": "paused",
      "outputs": [
        {
          "internalType": "bool",
          "name": "",
          "type": "bool"
        }
      ],
      "stateMutability": "view",
      "type": "function",
      "constant": true
    },
    {
      "inputs": [
        {
          "internalType": "uint256",
          "name": "id",
          "type": "uint256"
        }
      ],
      "name": "totalSupply",
      "outputs": [
        {
          "internalType": "uint256",
          "name": "",
          "type": "uint256"
        }
      ],
      "stateMutability": "view",
      "type": "function",
      "constant": true
    },
    {
      "inputs": [
        {
          "internalType": "uint256",
          "name": "",
          "type": "uint256"
        }
      ],
      "name": "uri",
      "outputs": [
        {
          "internalType": "string",
          "name": "",
          "type": "string"
        }
      ],
      "stateMutability": "view",
      "type": "function",
      "constant": true
    },
    {
      "inputs": [],
      "name": "getDecimals",
      "outputs": [
        {
          "internalType": "uint256",
          "name": "",
          "type": "uint256"
        }
      ],
      "stateMutability": "view",
      "type": "function",
      "constant": true
    },
    {
      "inputs": [
        {
          "internalType": "uint256",
          "name": "id",
          "type": "uint256"
        },
        {
          "internalType": "uint256",
          "name": "amount",
          "type": "uint256"
        },
        {
          "internalType": "bytes",
          "name": "data",
          "type": "bytes"
        }
      ],
      "name": "mint",
      "outputs": [],
      "stateMutability": "nonpayable",
      "type": "function"
    },
    {
      "inputs": [
        {
          "internalType": "uint256[]",
          "name": "ids",
          "type": "uint256[]"
        },
        {
          "internalType": "uint256[]",
          "name": "amounts",
          "type": "uint256[]"
        },
        {
          "internalType": "bytes",
          "name": "data",
          "type": "bytes"
        }
      ],
      "name": "mintBatch",
      "outputs": [],
      "stateMutability": "nonpayable",
      "type": "function"
    },
    {
      "inputs": [
        {
          "internalType": "address",
          "name": "from",
          "type": "address"
        },
        {
          "internalType": "address",
          "name": "to",
          "type": "address"
        },
        {
          "internalType": "uint256",
          "name": "id",
          "type": "uint256"
        },
        {
          "internalType": "uint256",
          "name": "amount",
          "type": "uint256"
        },
        {
          "internalType": "bytes",
          "name": "data",
          "type": "bytes"
        }
      ],
      "name": "safeTransferFrom",
      "outputs": [],
      "stateMutability": "nonpayable",
      "type": "function"
    },
    {
      "inputs": [
        {
          "internalType": "address",
          "name": "from",
          "type": "address"
        },
        {
          "internalType": "address",
          "name": "to",
          "type": "address"
        },
        {
          "internalType": "uint256[]",
          "name": "ids",
          "type": "uint256[]"
        },
        {
          "internalType": "uint256[]",
          "name": "amounts",
          "type": "uint256[]"
        },
        {
          "internalType": "bytes",
          "name": "data",
          "type": "bytes"
        }
      ],
      "name": "safeBatchTransferFrom",
      "outputs": [],
      "stateMutability": "nonpayable",
      "type": "function"
    },
    {
      "inputs": [
        {
          "internalType": "address",
          "name": "operator",
          "type": "address"
        },
        {
          "internalType": "bool",
          "name": "approved",
          "type": "bool"
        }
      ],
      "name": "setApprovalForAll",
      "outputs": [],
      "stateMutability": "nonpayable",
      "type": "function"
    },
    {
      "inputs": [],
      "name": "pause",
      "outputs": [],
      "stateMutability": "nonpayable",
      "type": "function"
    },
    {
      "inputs": [],
      "name": "unpause",
      "outputs": [],
      "stateMutability": "nonpayable",
      "type": "function"
    },
    {
      "inputs": [
        {
          "internalType": "bytes4",
          "name": "interfaceId",
          "type": "bytes4"
        }
      ],
      "name": "supportsInterface",
      "outputs": [
        {
          "internalType": "bool",
          "name": "",
          "type": "bool"
        }
      ],
      "stateMutability": "view",
      "type": "function",
      "constant": true
    },
    {
      "inputs": [
        {
          "internalType": "bytes32",
          "name": "role",
          "type": "bytes32"
        },
        {
          "internalType": "address",
          "name": "account",
          "type": "address"
        }
      ],
      "name": "grantRole",
      "outputs": [],
      "stateMutability": "nonpayable",
      "type": "function"
    },
    {
      "inputs": [
        {
          "internalType": "bytes32",
          "name": "role",
          "type": "bytes32"
        },
        {
          "internalType": "address",
          "name": "account",
          "type": "address"
        }
      ],
      "name": "revokeRole",
      "outputs": [],
      "stateMutability": "nonpayable",
      "type": "function"
    },
    {
      "inputs": [
        {
          "internalType": "bytes32",
          "name": "role",
          "type": "bytes32"
        },
        {
          "internalType": "address",
          "name": "account",
          "type": "address"
        }
      ],
      "name": "renounceRole",
      "outputs": [],
      "stateMutability": "nonpayable",
      "type": "function"
    },
    {
      "inputs": [
        {
          "internalType": "address",
          "name": "account",
          "type": "address"
        }
      ],
      "name": "isWhitelisted",
      "outputs": [
        {
          "internalType": "bool",
          "name": "",
          "type": "bool"
        }
      ],
      "stateMutability": "view",
      "type": "function",
      "constant": true
    },
    {
      "inputs": [
        {
          "internalType": "address",
          "name": "account",
          "type": "address"
        }
      ],
      "name": "addToWhitelist",
      "outputs": [],
      "stateMutability": "nonpayable",
      "type": "function"
    },
    {
      "inputs": [
        {
          "internalType": "address",
          "name": "account",
          "type": "address"
        }
      ],
      "name": "removeFromWhitelist",
      "outputs": [],
      "stateMutability": "nonpayable",
      "type": "function"
    }
  ],
  "bytecode": "0x60806040523480156200001157600080fd5b506040516200619c3803806200619c83398181016040528101906200003791906200070e565b816200004981620001e060201b60201c565b506000600560006101000a81548160ff0219169083151502179055506005811115620000ac576040517f08c379a0000000000000000000000000000000000000000000000000000000008152600401620000a390620007d5565b60405180910390fd5b620000d06000801b620000c4620001f560201b60201c565b620001fd60201b60201c565b620001117f9f2df0fed2c77648de5860a4cc508cd0818c85b8b8a1ab4ceeef8d981c8956a662000105620001f560201b60201c565b620001fd60201b60201c565b620001527f65d7a28e3265b37a6474929f336521b332c1681b933f6cb9f3376673440d862a62000146620001f560201b60201c565b620001fd60201b60201c565b6200017262000166620001f560201b60201c565b6200021360201b60201c565b8060088190555062000189620001f560201b60201c565b73ffffffffffffffffffffffffffffffffffffffff167fb03c53b28e78a88e31607a27e1fa48234dce28d5d9d9ec7b295aeb02e674a1e142604051620001d0919062000808565b60405180910390a2505062000b4d565b8060049081620001f1919062000a66565b5050565b600033905090565b6200020f8282620002c860201b60201c565b5050565b6001600760008373ffffffffffffffffffffffffffffffffffffffff1673ffffffffffffffffffffffffffffffffffffffff16815260200190815260200160002060006101000a81548160ff0219169083151502179055508073ffffffffffffffffffffffffffffffffffffffff163373ffffffffffffffffffffffffffffffffffffffff167f0c4b48e75a1f7ab0a9a2f786b5d6c1f7789020403bff177fb54d46edb89ccc0060405160405180910390a350565b620002df82826200031060201b620012dd1760201c565b6200030b81600160008581526020019081526020016000206200040160201b620013bd1790919060201c565b505050565b6200032282826200043960201b60201c565b620003fd57600160008084815260200190815260200160002060000160008373ffffffffffffffffffffffffffffffffffffffff1673ffffffffffffffffffffffffffffffffffffffff16815260200190815260200160002060006101000a81548160ff021916908315150217905550620003a2620001f560201b60201c565b73ffffffffffffffffffffffffffffffffffffffff168173ffffffffffffffffffffffffffffffffffffffff16837f2f8788117e7eff1d82e926ec794901d17c78024a50270940304540a733656f0d60405160405180910390a45b5050565b600062000431836000018373ffffffffffffffffffffffffffffffffffffffff1660001b620004a360201b60201c565b905092915050565b600080600084815260200190815260200160002060000160008373ffffffffffffffffffffffffffffffffffffffff1673ffffffffffffffffffffffffffffffffffffffff16815260200190815260200160002060009054906101000a900460ff16905092915050565b6000620004b783836200051d60201b60201c565b6200051257826000018290806001815401808255809150506001900390600052602060002001600090919091909150558260000180549050836001016000848152602001908152602001600020819055506001905062000517565b600090505b92915050565b600080836001016000848152602001908152602001600020541415905092915050565b6000604051905090565b600080fd5b600080fd5b600080fd5b600080fd5b6000601f19601f8301169050919050565b7f4e487b7100000000000000000000000000000000000000000000000000000000600052604160045260246000fd5b620005a9826200055e565b810181811067ffffffffffffffff82111715620005cb57620005ca6200056f565b5b80604052505050565b6000620005e062000540565b9050620005ee82826200059e565b919050565b600067ffffffffffffffff8211156200061157620006106200056f565b5b6200061c826200055e565b9050602081019050919050565b60005b83811015620006495780820151818401526020810190506200062c565b60008484015250505050565b60006200066c6200066684620005f3565b620005d4565b9050828152602081018484840111156200068b576200068a62000559565b5b6200069884828562000629565b509392505050565b600082601f830112620006b857620006b762000554565b5b8151620006ca84826020860162000655565b91505092915050565b6000819050919050565b620006e881620006d3565b8114620006f457600080fd5b50565b6000815190506200070881620006dd565b92915050565b600080604083850312156200072857620007276200054a565b5b600083015167ffffffffffffffff8111156200074957620007486200054f565b5b6200075785828601620006a0565b92505060206200076a85828601620006f7565b9150509250929050565b600082825260208201905092915050565b7f4d6178696d756d206f66203520646563696d616c730000000000000000000000600082015250565b6000620007bd60158362000774565b9150620007ca8262000785565b602082019050919050565b60006020820190508181036000830152620007f081620007ae565b9050919050565b6200080281620006d3565b82525050565b60006020820190506200081f6000830184620007f7565b92915050565b600081519050919050565b7f4e487b7100000000000000000000000000000000000000000000000000000000600052602260045260246000fd5b600060028204905060018216806200087857607f821691505b6020821081036200088e576200088d62000830565b5b50919050565b60008190508160005260206000209050919050565b60006020601f8301049050919050565b600082821b905092915050565b600060088302620008f87fffffffffffffffffffffffffffffffffffffffffffffffffffffffffffffffff82620008b9565b620009048683620008b9565b95508019841693508086168417925050509392505050565b6000819050919050565b600062000947620009416200093b84620006d3565b6200091c565b620006d3565b9050919050565b6000819050919050565b620009638362000926565b6200097b62000972826200094e565b848454620008c6565b825550505050565b600090565b6200099262000983565b6200099f81848462000958565b505050565b5b81811015620009c757620009bb60008262000988565b600181019050620009a5565b5050565b601f82111562000a1657620009e08162000894565b620009eb84620008a9565b81016020851015620009fb578190505b62000a1362000a0a85620008a9565b830182620009a4565b50505b505050565b600082821c905092915050565b600062000a3b6000198460080262000a1b565b1980831691505092915050565b600062000a56838362000a28565b9150826002028217905092915050565b62000a718262000825565b67ffffffffffffffff81111562000a8d5762000a8c6200056f565b5b62000a9982546200085f565b62000aa6828285620009cb565b600060209050601f83116001811462000ade576000841562000ac9578287015190505b62000ad5858262000a48565b86555062000b45565b601f19841662000aee8662000894565b60005b8281101562000b185784890151825560018201915060208501945060208101905062000af1565b8683101562000b38578489015162000b34601f89168262000a28565b8355505b6001600288020188555050505b505050505050565b61563f8062000b5d6000396000f3fe608060405234801561001057600080fd5b50600436106101ce5760003560e01c80638ab1d68111610104578063ca15c873116100a2578063e63ab1e911610071578063e63ab1e91461054d578063e985e9c51461056b578063f0141d841461059b578063f242432a146105b9576101ce565b8063ca15c873146104c7578063d5391393146104f7578063d547741f14610515578063e43252d714610531576101ce565b8063a217fddf116100de578063a217fddf14610441578063a22cb4651461045f578063bb4351e81461047b578063bd85b03914610497576101ce565b80638ab1d681146103c55780639010d07c146103e157806391d1485414610411576101ce565b806336568abe116101715780634e1273f41161014b5780634e1273f41461033d5780634f558e791461036d5780635c975abb1461039d5780638456cb59146103bb576101ce565b806336568abe146102e75780633af32abf146103035780633f4ba83a14610333576101ce565b80630e89341c116101ad5780630e89341c1461024f578063248a9ca31461027f5780632eb2c2d6146102af5780632f2ff15d146102cb576101ce565b8062fdd58e146101d357806301ffc9a71461020357806308dc9f4214610233575b600080fd5b6101ed60048036038101906101e89190613463565b6105d5565b6040516101fa91906134b2565b60405180910390f35b61021d60048036038101906102189190613525565b61069e565b60405161022a919061356d565b60405180910390f35b61024d600480360381019061024891906136ce565b6106b0565b005b6102696004803603810190610264919061373d565b61081c565b60405161027691906137e9565b60405180910390f35b61029960048036038101906102949190613841565b6108b0565b6040516102a6919061387d565b60405180910390f35b6102c960048036038101906102c49190613960565b6108cf565b005b6102e560048036038101906102e09190613a2f565b61093c565b005b61030160048036038101906102fc9190613a2f565b6109b7565b005b61031d60048036038101906103189190613a6f565b6109c5565b60405161032a919061356d565b60405180910390f35b61033b6109d7565b005b61035760048036038101906103529190613b5f565b610ac5565b6040516103649190613c95565b60405180910390f35b6103876004803603810190610382919061373d565b610bde565b604051610394919061356d565b60405180910390f35b6103a5610bf2565b6040516103b2919061356d565b60405180910390f35b6103c3610c09565b005b6103df60048036038101906103da9190613a6f565b610cf7565b005b6103fb60048036038101906103f69190613cb7565b610d56565b6040516104089190613d06565b60405180910390f35b61042b60048036038101906104269190613a2f565b610d85565b604051610438919061356d565b60405180910390f35b610449610def565b604051610456919061387d565b60405180910390f35b61047960048036038101906104749190613d4d565b610df6565b005b61049560048036038101906104909190613d8d565b610e77565b005b6104b160048036038101906104ac919061373d565b6110dc565b6040516104be91906134b2565b60405180910390f35b6104e160048036038101906104dc9190613841565b6110f9565b6040516104ee91906134b2565b60405180910390f35b6104ff61111d565b60405161050c919061387d565b60405180910390f35b61052f600480360381019061052a9190613a2f565b611141565b005b61054b60048036038101906105469190613a6f565b61114f565b005b6105556111ae565b604051610562919061387d565b60405180910390f35b61058560048036038101906105809190613e34565b6111d2565b604051610592919061356d565b60405180910390f35b6105a3611266565b6040516105b091906134b2565b60405180910390f35b6105d360048036038101906105ce9190613e74565b611270565b005b60008073ffffffffffffffffffffffffffffffffffffffff168373ffffffffffffffffffffffffffffffffffffffff1603610645576040517f08c379a000000000000000000000000000000000000000000000000000000000815260040161063c90613f7d565b60405180910390fd5b6002600083815260200190815260200160002060008473ffffffffffffffffffffffffffffffffffffffff1673ffffffffffffffffffffffffffffffffffffffff16815260200190815260200160002054905092915050565b60006106a9826113ed565b9050919050565b6106b86114cf565b6106c1816114d7565b816040516020016106d29190614088565b60405160208183030381529060405290610722576040517f08c379a000000000000000000000000000000000000000000000000000000000815260040161071991906137e9565b60405180910390fd5b506107547f9f2df0fed2c77648de5860a4cc508cd0818c85b8b8a1ab4ceeef8d981c8956a661074f6114cf565b610d85565b610793576040517f08c379a000000000000000000000000000000000000000000000000000000000815260040161078a9061412b565b60405180910390fd5b600854600a6107a291906142ad565b60646107ae91906142f8565b6107b7856110dc565b846107c2919061433a565b1115610803576040517f08c379a00000000000000000000000000000000000000000000000000000000081526004016107fa906143e0565b60405180910390fd5b61081661080e6114cf565b85858561152d565b50505050565b60606004805461082b9061442f565b80601f01602080910402602001604051908101604052809291908181526020018280546108579061442f565b80156108a45780601f10610879576101008083540402835291602001916108a4565b820191906000526020600020905b81548152906001019060200180831161088757829003601f168201915b50505050509050919050565b6000806000838152602001908152602001600020600101549050919050565b6108d8856114d7565b80156108e957506108e8846114d7565b5b610928576040517f08c379a000000000000000000000000000000000000000000000000000000000815260040161091f906144d2565b60405180910390fd5b61093585858585856116de565b5050505050565b80610946816114d7565b816040516020016109579190614088565b604051602081830303815290604052906109a7576040517f08c379a000000000000000000000000000000000000000000000000000000000815260040161099e91906137e9565b60405180910390fd5b506109b2838361177f565b505050565b6109c182826117a0565b5050565b60006109d0826114d7565b9050919050565b6109df6114cf565b6109e8816114d7565b816040516020016109f99190614088565b60405160208183030381529060405290610a49576040517f08c379a0000000000000000000000000000000000000000000000000000000008152600401610a4091906137e9565b60405180910390fd5b50610a7b7f65d7a28e3265b37a6474929f336521b332c1681b933f6cb9f3376673440d862a610a766114cf565b610d85565b610aba576040517f08c379a0000000000000000000000000000000000000000000000000000000008152600401610ab190614564565b60405180910390fd5b610ac2611823565b50565b60608151835114610b0b576040517f08c379a0000000000000000000000000000000000000000000000000000000008152600401610b02906145f6565b60405180910390fd5b6000835167ffffffffffffffff811115610b2857610b276135a3565b5b604051908082528060200260200182016040528015610b565781602001602082028036833780820191505090505b50905060005b8451811015610bd357610ba3858281518110610b7b57610b7a614616565b5b6020026020010151858381518110610b9657610b95614616565b5b60200260200101516105d5565b828281518110610bb657610bb5614616565b5b60200260200101818152505080610bcc90614645565b9050610b5c565b508091505092915050565b600080610bea836110dc565b119050919050565b6000600560009054906101000a900460ff16905090565b610c116114cf565b610c1a816114d7565b81604051602001610c2b9190614088565b60405160208183030381529060405290610c7b576040517f08c379a0000000000000000000000000000000000000000000000000000000008152600401610c7291906137e9565b60405180910390fd5b50610cad7f65d7a28e3265b37a6474929f336521b332c1681b933f6cb9f3376673440d862a610ca86114cf565b610d85565b610cec576040517f08c379a0000000000000000000000000000000000000000000000000000000008152600401610ce3906146ff565b60405180910390fd5b610cf4611886565b50565b610d0b6000801b610d066114cf565b610d85565b610d4a576040517f08c379a0000000000000000000000000000000000000000000000000000000008152600401610d41906147b7565b60405180910390fd5b610d53816118e9565b50565b6000610d7d826001600086815260200190815260200160002061199e90919063ffffffff16565b905092915050565b600080600084815260200190815260200160002060000160008373ffffffffffffffffffffffffffffffffffffffff1673ffffffffffffffffffffffffffffffffffffffff16815260200190815260200160002060009054906101000a900460ff16905092915050565b6000801b81565b610dff826114d7565b610e08836119b8565b604051602001610e1891906148a0565b60405160208183030381529060405290610e68576040517f08c379a0000000000000000000000000000000000000000000000000000000008152600401610e5f91906137e9565b60405180910390fd5b50610e7382826119e5565b5050565b610e7f6114cf565b610e88816114d7565b81604051602001610e999190614088565b60405160208183030381529060405290610ee9576040517f08c379a0000000000000000000000000000000000000000000000000000000008152600401610ee091906137e9565b60405180910390fd5b50610f1b7f9f2df0fed2c77648de5860a4cc508cd0818c85b8b8a1ab4ceeef8d981c8956a6610f166114cf565b610d85565b610f5a576040517f08c379a0000000000000000000000000000000000000000000000000000000008152600401610f519061412b565b60405180910390fd5b60005b84518110156110c2576000600182610f75919061433a565b90505b855181101561100a57858181518110610f9457610f93614616565b5b6020026020010151868381518110610faf57610fae614616565b5b602002602001015103610ff7576040517f08c379a0000000000000000000000000000000000000000000000000000000008152600401610fee90614919565b60405180910390fd5b808061100290614645565b915050610f78565b50600854600a61101a91906142ad565b606461102691906142f8565b61104986838151811061103c5761103b614616565b5b60200260200101516110dc565b85838151811061105c5761105b614616565b5b602002602001015161106e919061433a565b11156110af576040517f08c379a00000000000000000000000000000000000000000000000000000000081526004016110a6906149d1565b60405180910390fd5b80806110ba90614645565b915050610f5d565b506110d66110ce6114cf565b8585856119fb565b50505050565b600060066000838152602001908152602001600020549050919050565b600061111660016000848152602001908152602001600020611c28565b9050919050565b7f9f2df0fed2c77648de5860a4cc508cd0818c85b8b8a1ab4ceeef8d981c8956a681565b61114b8282611c3d565b5050565b6111636000801b61115e6114cf565b610d85565b6111a2576040517f08c379a000000000000000000000000000000000000000000000000000000000815260040161119990614a89565b60405180910390fd5b6111ab81611c5e565b50565b7f65d7a28e3265b37a6474929f336521b332c1681b933f6cb9f3376673440d862a81565b6000600360008473ffffffffffffffffffffffffffffffffffffffff1673ffffffffffffffffffffffffffffffffffffffff16815260200190815260200160002060008373ffffffffffffffffffffffffffffffffffffffff1673ffffffffffffffffffffffffffffffffffffffff16815260200190815260200160002060009054906101000a900460ff16905092915050565b6000600854905090565b611279856114d7565b801561128a5750611289846114d7565b5b6112c9576040517f08c379a00000000000000000000000000000000000000000000000000000000081526004016112c0906144d2565b60405180910390fd5b6112d68585858585611d13565b5050505050565b6112e78282610d85565b6113b957600160008084815260200190815260200160002060000160008373ffffffffffffffffffffffffffffffffffffffff1673ffffffffffffffffffffffffffffffffffffffff16815260200190815260200160002060006101000a81548160ff02191690831515021790555061135e6114cf565b73ffffffffffffffffffffffffffffffffffffffff168173ffffffffffffffffffffffffffffffffffffffff16837f2f8788117e7eff1d82e926ec794901d17c78024a50270940304540a733656f0d60405160405180910390a45b5050565b60006113e5836000018373ffffffffffffffffffffffffffffffffffffffff1660001b611db4565b905092915050565b60007fd9b67a26000000000000000000000000000000000000000000000000000000007bffffffffffffffffffffffffffffffffffffffffffffffffffffffff1916827bffffffffffffffffffffffffffffffffffffffffffffffffffffffff191614806114b857507f0e89341c000000000000000000000000000000000000000000000000000000007bffffffffffffffffffffffffffffffffffffffffffffffffffffffff1916827bffffffffffffffffffffffffffffffffffffffffffffffffffffffff1916145b806114c857506114c782611e24565b5b9050919050565b600033905090565b6000600760008373ffffffffffffffffffffffffffffffffffffffff1673ffffffffffffffffffffffffffffffffffffffff16815260200190815260200160002060009054906101000a900460ff169050919050565b600073ffffffffffffffffffffffffffffffffffffffff168473ffffffffffffffffffffffffffffffffffffffff160361159c576040517f08c379a000000000000000000000000000000000000000000000000000000000815260040161159390614b1b565b60405180910390fd5b60006115a66114cf565b905060006115b385611e9e565b905060006115c085611e9e565b90506115d183600089858589611f18565b846002600088815260200190815260200160002060008973ffffffffffffffffffffffffffffffffffffffff1673ffffffffffffffffffffffffffffffffffffffff1681526020019081526020016000206000828254611631919061433a565b925050819055508673ffffffffffffffffffffffffffffffffffffffff16600073ffffffffffffffffffffffffffffffffffffffff168473ffffffffffffffffffffffffffffffffffffffff167fc3d58168c5ae7397731d063d5bbf3d657854427343f4c083240f7aacaa2d0f6289896040516116af929190614b3b565b60405180910390a46116c683600089858589611f2e565b6116d583600089898989611f36565b50505050505050565b6116e66114cf565b73ffffffffffffffffffffffffffffffffffffffff168573ffffffffffffffffffffffffffffffffffffffff16148061172c575061172b856117266114cf565b6111d2565b5b61176b576040517f08c379a000000000000000000000000000000000000000000000000000000000815260040161176290614bd6565b60405180910390fd5b611778858585858561210d565b5050505050565b611788826108b0565b61179181612431565b61179b8383612445565b505050565b6117a86114cf565b73ffffffffffffffffffffffffffffffffffffffff168173ffffffffffffffffffffffffffffffffffffffff1614611815576040517f08c379a000000000000000000000000000000000000000000000000000000000815260040161180c90614c68565b60405180910390fd5b61181f8282612479565b5050565b61182b6124ad565b6000600560006101000a81548160ff0219169083151502179055507f5db9ee0a495bf2e6ff9c91a7834c1ba4fdd244a5e8aa4e537bd38aeae4b073aa61186f6114cf565b60405161187c9190613d06565b60405180910390a1565b61188e6124f6565b6001600560006101000a81548160ff0219169083151502179055507f62e78cea01bee320cd4e420270b5ea74000d11b0c9f74754ebdbfc544b05a2586118d26114cf565b6040516118df9190613d06565b60405180910390a1565b6000600760008373ffffffffffffffffffffffffffffffffffffffff1673ffffffffffffffffffffffffffffffffffffffff16815260200190815260200160002060006101000a81548160ff0219169083151502179055508073ffffffffffffffffffffffffffffffffffffffff163373ffffffffffffffffffffffffffffffffffffffff167fd288ab5da2e1f37cf384a1565a3f905ad289b092fbdd31950dbbfef148c04f8860405160405180910390a350565b60006119ad8360000183612540565b60001c905092915050565b60606119de8273ffffffffffffffffffffffffffffffffffffffff16601460ff1661256b565b9050919050565b6119f76119f06114cf565b83836127a7565b5050565b600073ffffffffffffffffffffffffffffffffffffffff168473ffffffffffffffffffffffffffffffffffffffff1603611a6a576040517f08c379a0000000000000000000000000000000000000000000000000000000008152600401611a6190614b1b565b60405180910390fd5b8151835114611aae576040517f08c379a0000000000000000000000000000000000000000000000000000000008152600401611aa590614cfa565b60405180910390fd5b6000611ab86114cf565b9050611ac981600087878787611f18565b60005b8451811015611b8357838181518110611ae857611ae7614616565b5b602002602001015160026000878481518110611b0757611b06614616565b5b6020026020010151815260200190815260200160002060008873ffffffffffffffffffffffffffffffffffffffff1673ffffffffffffffffffffffffffffffffffffffff1681526020019081526020016000206000828254611b69919061433a565b925050819055508080611b7b90614645565b915050611acc565b508473ffffffffffffffffffffffffffffffffffffffff16600073ffffffffffffffffffffffffffffffffffffffff168273ffffffffffffffffffffffffffffffffffffffff167f4a39dc06d4c0dbc64b70af90fd698a233a518aa5d07e595d983b8c0526c8f7fb8787604051611bfb929190614d1a565b60405180910390a4611c1281600087878787611f2e565b611c2181600087878787612913565b5050505050565b6000611c3682600001612aea565b9050919050565b611c46826108b0565b611c4f81612431565b611c598383612479565b505050565b6001600760008373ffffffffffffffffffffffffffffffffffffffff1673ffffffffffffffffffffffffffffffffffffffff16815260200190815260200160002060006101000a81548160ff0219169083151502179055508073ffffffffffffffffffffffffffffffffffffffff163373ffffffffffffffffffffffffffffffffffffffff167f0c4b48e75a1f7ab0a9a2f786b5d6c1f7789020403bff177fb54d46edb89ccc0060405160405180910390a350565b611d1b6114cf565b73ffffffffffffffffffffffffffffffffffffffff168573ffffffffffffffffffffffffffffffffffffffff161480611d615750611d6085611d5b6114cf565b6111d2565b5b611da0576040517f08c379a0000000000000000000000000000000000000000000000000000000008152600401611d9790614bd6565b60405180910390fd5b611dad8585858585612afb565b5050505050565b6000611dc08383612d99565b611e19578260000182908060018154018082558091505060019003906000526020600020016000909190919091505582600001805490508360010160008481526020019081526020016000208190555060019050611e1e565b600090505b92915050565b60007f5a05180f000000000000000000000000000000000000000000000000000000007bffffffffffffffffffffffffffffffffffffffffffffffffffffffff1916827bffffffffffffffffffffffffffffffffffffffffffffffffffffffff19161480611e975750611e9682612dbc565b5b9050919050565b60606000600167ffffffffffffffff811115611ebd57611ebc6135a3565b5b604051908082528060200260200182016040528015611eeb5781602001602082028036833780820191505090505b5090508281600081518110611f0357611f02614616565b5b60200260200101818152505080915050919050565b611f26868686868686612e36565b505050505050565b505050505050565b611f558473ffffffffffffffffffffffffffffffffffffffff16613006565b15612105578373ffffffffffffffffffffffffffffffffffffffff1663f23a6e6187878686866040518663ffffffff1660e01b8152600401611f9b959493929190614da6565b6020604051808303816000875af1925050508015611fd757506040513d601f19601f82011682018060405250810190611fd49190614e15565b60015b61207c57611fe3614e4f565b806308c379a00361203f5750611ff7614e71565b806120025750612041565b806040517f08c379a000000000000000000000000000000000000000000000000000000000815260040161203691906137e9565b60405180910390fd5b505b6040517f08c379a000000000000000000000000000000000000000000000000000000000815260040161207390614f73565b60405180910390fd5b63f23a6e6160e01b7bffffffffffffffffffffffffffffffffffffffffffffffffffffffff1916817bffffffffffffffffffffffffffffffffffffffffffffffffffffffff191614612103576040517f08c379a00000000000000000000000000000000000000000000000000000000081526004016120fa90615005565b60405180910390fd5b505b505050505050565b8151835114612151576040517f08c379a000000000000000000000000000000000000000000000000000000000815260040161214890614cfa565b60405180910390fd5b600073ffffffffffffffffffffffffffffffffffffffff168473ffffffffffffffffffffffffffffffffffffffff16036121c0576040517f08c379a00000000000000000000000000000000000000000000000000000000081526004016121b790615097565b60405180910390fd5b60006121ca6114cf565b90506121da818787878787611f18565b60005b845181101561238e5760008582815181106121fb576121fa614616565b5b60200260200101519050600085838151811061221a57612219614616565b5b6020026020010151905060006002600084815260200190815260200160002060008b73ffffffffffffffffffffffffffffffffffffffff1673ffffffffffffffffffffffffffffffffffffffff168152602001908152602001600020549050818110156122bc576040517f08c379a00000000000000000000000000000000000000000000000000000000081526004016122b390615129565b60405180910390fd5b8181036002600085815260200190815260200160002060008c73ffffffffffffffffffffffffffffffffffffffff1673ffffffffffffffffffffffffffffffffffffffff16815260200190815260200160002081905550816002600085815260200190815260200160002060008b73ffffffffffffffffffffffffffffffffffffffff1673ffffffffffffffffffffffffffffffffffffffff1681526020019081526020016000206000828254612373919061433a565b925050819055505050508061238790614645565b90506121dd565b508473ffffffffffffffffffffffffffffffffffffffff168673ffffffffffffffffffffffffffffffffffffffff168273ffffffffffffffffffffffffffffffffffffffff167f4a39dc06d4c0dbc64b70af90fd698a233a518aa5d07e595d983b8c0526c8f7fb8787604051612405929190614d1a565b60405180910390a461241b818787878787611f2e565b612429818787878787612913565b505050505050565b6124428161243d6114cf565b613029565b50565b61244f82826112dd565b61247481600160008581526020019081526020016000206113bd90919063ffffffff16565b505050565b61248382826130c6565b6124a881600160008581526020019081526020016000206131a790919063ffffffff16565b505050565b6124b5610bf2565b6124f4576040517f08c379a00000000000000000000000000000000000000000000000000000000081526004016124eb90615195565b60405180910390fd5b565b6124fe610bf2565b1561253e576040517f08c379a000000000000000000000000000000000000000000000000000000000815260040161253590615201565b60405180910390fd5b565b600082600001828154811061255857612557614616565b5b9060005260206000200154905092915050565b60606000600283600261257e91906142f8565b612588919061433a565b67ffffffffffffffff8111156125a1576125a06135a3565b5b6040519080825280601f01601f1916602001820160405280156125d35781602001600182028036833780820191505090505b5090507f30000000000000000000000000000000000000000000000000000000000000008160008151811061260b5761260a614616565b5b60200101907effffffffffffffffffffffffffffffffffffffffffffffffffffffffffffff1916908160001a9053507f78000000000000000000000000000000000000000000000000000000000000008160018151811061266f5761266e614616565b5b60200101907effffffffffffffffffffffffffffffffffffffffffffffffffffffffffffff1916908160001a905350600060018460026126af91906142f8565b6126b9919061433a565b90505b6001811115612759577f3031323334353637383961626364656600000000000000000000000000000000600f8616601081106126fb576126fa614616565b5b1a60f81b82828151811061271257612711614616565b5b60200101907effffffffffffffffffffffffffffffffffffffffffffffffffffffffffffff1916908160001a905350600485901c94508061275290615221565b90506126bc565b506000841461279d576040517f08c379a000000000000000000000000000000000000000000000000000000000815260040161279490615296565b60405180910390fd5b8091505092915050565b8173ffffffffffffffffffffffffffffffffffffffff168373ffffffffffffffffffffffffffffffffffffffff1603612815576040517f08c379a000000000000000000000000000000000000000000000000000000000815260040161280c90615328565b60405180910390fd5b80600360008573ffffffffffffffffffffffffffffffffffffffff1673ffffffffffffffffffffffffffffffffffffffff16815260200190815260200160002060008473ffffffffffffffffffffffffffffffffffffffff1673ffffffffffffffffffffffffffffffffffffffff16815260200190815260200160002060006101000a81548160ff0219169083151502179055508173ffffffffffffffffffffffffffffffffffffffff168373ffffffffffffffffffffffffffffffffffffffff167f17307eab39ab6107e8899845ad3d59bd9653f200f220920489ca2b5937696c3183604051612906919061356d565b60405180910390a3505050565b6129328473ffffffffffffffffffffffffffffffffffffffff16613006565b15612ae2578373ffffffffffffffffffffffffffffffffffffffff1663bc197c8187878686866040518663ffffffff1660e01b8152600401612978959493929190615348565b6020604051808303816000875af19250505080156129b457506040513d601f19601f820116820180604052508101906129b19190614e15565b60015b612a59576129c0614e4f565b806308c379a003612a1c57506129d4614e71565b806129df5750612a1e565b806040517f08c379a0000000000000000000000000000000000000000000000000000000008152600401612a1391906137e9565b60405180910390fd5b505b6040517f08c379a0000000000000000000000000000000000000000000000000000000008152600401612a5090614f73565b60405180910390fd5b63bc197c8160e01b7bffffffffffffffffffffffffffffffffffffffffffffffffffffffff1916817bffffffffffffffffffffffffffffffffffffffffffffffffffffffff191614612ae0576040517f08c379a0000000000000000000000000000000000000000000000000000000008152600401612ad790615005565b60405180910390fd5b505b505050505050565b600081600001805490509050919050565b600073ffffffffffffffffffffffffffffffffffffffff168473ffffffffffffffffffffffffffffffffffffffff1603612b6a576040517f08c379a0000000000000000000000000000000000000000000000000000000008152600401612b6190615097565b60405180910390fd5b6000612b746114cf565b90506000612b8185611e9e565b90506000612b8e85611e9e565b9050612b9e838989858589611f18565b60006002600088815260200190815260200160002060008a73ffffffffffffffffffffffffffffffffffffffff1673ffffffffffffffffffffffffffffffffffffffff16815260200190815260200160002054905085811015612c36576040517f08c379a0000000000000000000000000000000000000000000000000000000008152600401612c2d90615129565b60405180910390fd5b8581036002600089815260200190815260200160002060008b73ffffffffffffffffffffffffffffffffffffffff1673ffffffffffffffffffffffffffffffffffffffff16815260200190815260200160002081905550856002600089815260200190815260200160002060008a73ffffffffffffffffffffffffffffffffffffffff1673ffffffffffffffffffffffffffffffffffffffff1681526020019081526020016000206000828254612ced919061433a565b925050819055508773ffffffffffffffffffffffffffffffffffffffff168973ffffffffffffffffffffffffffffffffffffffff168573ffffffffffffffffffffffffffffffffffffffff167fc3d58168c5ae7397731d063d5bbf3d657854427343f4c083240f7aacaa2d0f628a8a604051612d6a929190614b3b565b60405180910390a4612d80848a8a86868a611f2e565b612d8e848a8a8a8a8a611f36565b505050505050505050565b600080836001016000848152602001908152602001600020541415905092915050565b60007f7965db0b000000000000000000000000000000000000000000000000000000007bffffffffffffffffffffffffffffffffffffffffffffffffffffffff1916827bffffffffffffffffffffffffffffffffffffffffffffffffffffffff19161480612e2f5750612e2e826131d7565b5b9050919050565b612e44868686868686613241565b600073ffffffffffffffffffffffffffffffffffffffff168573ffffffffffffffffffffffffffffffffffffffff1603612ef55760005b8351811015612ef357828181518110612e9757612e96614616565b5b602002602001015160066000868481518110612eb657612eb5614616565b5b602002602001015181526020019081526020016000206000828254612edb919061433a565b9250508190555080612eec90614645565b9050612e7b565b505b600073ffffffffffffffffffffffffffffffffffffffff168473ffffffffffffffffffffffffffffffffffffffff1603612ffe5760005b8351811015612ffc576000848281518110612f4a57612f49614616565b5b602002602001015190506000848381518110612f6957612f68614616565b5b6020026020010151905060006006600084815260200190815260200160002054905081811015612fce576040517f08c379a0000000000000000000000000000000000000000000000000000000008152600401612fc590615422565b60405180910390fd5b818103600660008581526020019081526020016000208190555050505080612ff590614645565b9050612f2c565b505b505050505050565b6000808273ffffffffffffffffffffffffffffffffffffffff163b119050919050565b6130338282610d85565b6130c2576130588173ffffffffffffffffffffffffffffffffffffffff16601461256b565b6130668360001c602061256b565b6040516020016130779291906154da565b6040516020818303038152906040526040517f08c379a00000000000000000000000000000000000000000000000000000000081526004016130b991906137e9565b60405180910390fd5b5050565b6130d08282610d85565b156131a357600080600084815260200190815260200160002060000160008373ffffffffffffffffffffffffffffffffffffffff1673ffffffffffffffffffffffffffffffffffffffff16815260200190815260200160002060006101000a81548160ff0219169083151502179055506131486114cf565b73ffffffffffffffffffffffffffffffffffffffff168173ffffffffffffffffffffffffffffffffffffffff16837ff6391f5c32d9c69d2a47ea670b442974b53935d1edc7fd64eb21e047a839171b60405160405180910390a45b5050565b60006131cf836000018373ffffffffffffffffffffffffffffffffffffffff1660001b61329f565b905092915050565b60007f01ffc9a7000000000000000000000000000000000000000000000000000000007bffffffffffffffffffffffffffffffffffffffffffffffffffffffff1916827bffffffffffffffffffffffffffffffffffffffffffffffffffffffff1916149050919050565b61324f8686868686866133b3565b613257610bf2565b15613297576040517f08c379a000000000000000000000000000000000000000000000000000000000815260040161328e90615586565b60405180910390fd5b505050505050565b600080836001016000848152602001908152602001600020549050600081146133a75760006001826132d191906155a6565b90506000600186600001805490506132e991906155a6565b905081811461335857600086600001828154811061330a57613309614616565b5b906000526020600020015490508087600001848154811061332e5761332d614616565b5b90600052602060002001819055508387600101600083815260200190815260200160002081905550505b8560000180548061336c5761336b6155da565b5b6001900381819060005260206000200160009055905585600101600086815260200190815260200160002060009055600193505050506133ad565b60009150505b92915050565b505050505050565b6000604051905090565b600080fd5b600080fd5b600073ffffffffffffffffffffffffffffffffffffffff82169050919050565b60006133fa826133cf565b9050919050565b61340a816133ef565b811461341557600080fd5b50565b60008135905061342781613401565b92915050565b6000819050919050565b6134408161342d565b811461344b57600080fd5b50565b60008135905061345d81613437565b92915050565b6000806040838503121561347a576134796133c5565b5b600061348885828601613418565b92505060206134998582860161344e565b9150509250929050565b6134ac8161342d565b82525050565b60006020820190506134c760008301846134a3565b92915050565b60007fffffffff0000000000000000000000000000000000000000000000000000000082169050919050565b613502816134cd565b811461350d57600080fd5b50565b60008135905061351f816134f9565b92915050565b60006020828403121561353b5761353a6133c5565b5b600061354984828501613510565b91505092915050565b60008115159050919050565b61356781613552565b82525050565b6000602082019050613582600083018461355e565b92915050565b600080fd5b600080fd5b6000601f19601f8301169050919050565b7f4e487b7100000000000000000000000000000000000000000000000000000000600052604160045260246000fd5b6135db82613592565b810181811067ffffffffffffffff821117156135fa576135f96135a3565b5b80604052505050565b600061360d6133bb565b905061361982826135d2565b919050565b600067ffffffffffffffff821115613639576136386135a3565b5b61364282613592565b9050602081019050919050565b82818337600083830152505050565b600061367161366c8461361e565b613603565b90508281526020810184848401111561368d5761368c61358d565b5b61369884828561364f565b509392505050565b600082601f8301126136b5576136b4613588565b5b81356136c584826020860161365e565b91505092915050565b6000806000606084860312156136e7576136e66133c5565b5b60006136f58682870161344e565b93505060206137068682870161344e565b925050604084013567ffffffffffffffff811115613727576137266133ca565b5b613733868287016136a0565b9150509250925092565b600060208284031215613753576137526133c5565b5b60006137618482850161344e565b91505092915050565b600081519050919050565b600082825260208201905092915050565b60005b838110156137a4578082015181840152602081019050613789565b60008484015250505050565b60006137bb8261376a565b6137c58185613775565b93506137d5818560208601613786565b6137de81613592565b840191505092915050565b6000602082019050818103600083015261380381846137b0565b905092915050565b6000819050919050565b61381e8161380b565b811461382957600080fd5b50565b60008135905061383b81613815565b92915050565b600060208284031215613857576138566133c5565b5b60006138658482850161382c565b91505092915050565b6138778161380b565b82525050565b6000602082019050613892600083018461386e565b92915050565b600067ffffffffffffffff8211156138b3576138b26135a3565b5b602082029050602081019050919050565b600080fd5b60006138dc6138d784613898565b613603565b905080838252602082019050602084028301858111156138ff576138fe6138c4565b5b835b818110156139285780613914888261344e565b845260208401935050602081019050613901565b5050509392505050565b600082601f83011261394757613946613588565b5b81356139578482602086016138c9565b91505092915050565b600080600080600060a0868803121561397c5761397b6133c5565b5b600061398a88828901613418565b955050602061399b88828901613418565b945050604086013567ffffffffffffffff8111156139bc576139bb6133ca565b5b6139c888828901613932565b935050606086013567ffffffffffffffff8111156139e9576139e86133ca565b5b6139f588828901613932565b925050608086013567ffffffffffffffff811115613a1657613a156133ca565b5b613a22888289016136a0565b9150509295509295909350565b60008060408385031215613a4657613a456133c5565b5b6000613a548582860161382c565b9250506020613a6585828601613418565b9150509250929050565b600060208284031215613a8557613a846133c5565b5b6000613a9384828501613418565b91505092915050565b600067ffffffffffffffff821115613ab757613ab66135a3565b5b602082029050602081019050919050565b6000613adb613ad684613a9c565b613603565b90508083825260208201905060208402830185811115613afe57613afd6138c4565b5b835b81811015613b275780613b138882613418565b845260208401935050602081019050613b00565b5050509392505050565b600082601f830112613b4657613b45613588565b5b8135613b56848260208601613ac8565b91505092915050565b60008060408385031215613b7657613b756133c5565b5b600083013567ffffffffffffffff811115613b9457613b936133ca565b5b613ba085828601613b31565b925050602083013567ffffffffffffffff811115613bc157613bc06133ca565b5b613bcd85828601613932565b9150509250929050565b600081519050919050565b600082825260208201905092915050565b6000819050602082019050919050565b613c0c8161342d565b82525050565b6000613c1e8383613c03565b60208301905092915050565b6000602082019050919050565b6000613c4282613bd7565b613c4c8185613be2565b9350613c5783613bf3565b8060005b83811015613c88578151613c6f8882613c12565b9750613c7a83613c2a565b925050600181019050613c5b565b5085935050505092915050565b60006020820190508181036000830152613caf8184613c37565b905092915050565b60008060408385031215613cce57613ccd6133c5565b5b6000613cdc8582860161382c565b9250506020613ced8582860161344e565b9150509250929050565b613d00816133ef565b82525050565b6000602082019050613d1b6000830184613cf7565b92915050565b613d2a81613552565b8114613d3557600080fd5b50565b600081359050613d4781613d21565b92915050565b60008060408385031215613d6457613d636133c5565b5b6000613d7285828601613418565b9250506020613d8385828601613d38565b9150509250929050565b600080600060608486031215613da657613da56133c5565b5b600084013567ffffffffffffffff811115613dc457613dc36133ca565b5b613dd086828701613932565b935050602084013567ffffffffffffffff811115613df157613df06133ca565b5b613dfd86828701613932565b925050604084013567ffffffffffffffff811115613e1e57613e1d6133ca565b5b613e2a868287016136a0565b9150509250925092565b60008060408385031215613e4b57613e4a6133c5565b5b6000613e5985828601613418565b9250506020613e6a85828601613418565b9150509250929050565b600080600080600060a08688031215613e9057613e8f6133c5565b5b6000613e9e88828901613418565b9550506020613eaf88828901613418565b9450506040613ec08882890161344e565b9350506060613ed18882890161344e565b925050608086013567ffffffffffffffff811115613ef257613ef16133ca565b5b613efe888289016136a0565b9150509295509295909350565b7f455243313135353a2061646472657373207a65726f206973206e6f742061207660008201527f616c6964206f776e657200000000000000000000000000000000000000000000602082015250565b6000613f67602a83613775565b9150613f7282613f0b565b604082019050919050565b60006020820190508181036000830152613f9681613f5a565b9050919050565b600081905092915050565b7f455243313135355072657365744d696e7465725061757365723a000000000000600082015250565b6000613fde601a83613f9d565b9150613fe982613fa8565b601a82019050919050565b60008160601b9050919050565b600061400c82613ff4565b9050919050565b600061401e82614001565b9050919050565b614036614031826133ef565b614013565b82525050565b7f6d7573742062652077686974656c697374656400000000000000000000000000600082015250565b6000614072601383613f9d565b915061407d8261403c565b601382019050919050565b600061409382613fd1565b915061409f8284614025565b6014820191506140ae82614065565b915081905092915050565b7f455243313135355072657365744d696e7465725061757365723a206d7573742060008201527f68617665206d696e74657220726f6c6520746f206d696e740000000000000000602082015250565b6000614115603883613775565b9150614120826140b9565b604082019050919050565b6000602082019050818103600083015261414481614108565b9050919050565b7f4e487b7100000000000000000000000000000000000000000000000000000000600052601160045260246000fd5b60008160011c9050919050565b6000808291508390505b60018511156141d1578086048111156141ad576141ac61414b565b5b60018516156141bc5780820291505b80810290506141ca8561417a565b9450614191565b94509492505050565b6000826141ea57600190506142a6565b816141f857600090506142a6565b816001811461420e576002811461421857614247565b60019150506142a6565b60ff84111561422a5761422961414b565b5b8360020a9150848211156142415761424061414b565b5b506142a6565b5060208310610133831016604e8410600b841016171561427c5782820a9050838111156142775761427661414b565b5b6142a6565b6142898484846001614187565b925090508184048111156142a05761429f61414b565b5b81810290505b9392505050565b60006142b88261342d565b91506142c38361342d565b92506142f07fffffffffffffffffffffffffffffffffffffffffffffffffffffffffffffffff84846141da565b905092915050565b60006143038261342d565b915061430e8361342d565b925082820261431c8161342d565b915082820484148315176143335761433261414b565b5b5092915050565b60006143458261342d565b91506143508361342d565b92508282019050808211156143685761436761414b565b5b92915050565b7f4d6178696d756d20737570706c79206f662031303020746f6b656e732069732060008201527f7265616368656400000000000000000000000000000000000000000000000000602082015250565b60006143ca602783613775565b91506143d58261436e565b604082019050919050565b600060208201905081810360008301526143f9816143bd565b9050919050565b7f4e487b7100000000000000000000000000000000000000000000000000000000600052602260045260246000fd5b6000600282049050600182168061444757607f821691505b60208210810361445a57614459614400565b5b50919050565b7f53656e646572206f72207265636569766572206973206e6f742077686974656c60008201527f6973746564000000000000000000000000000000000000000000000000000000602082015250565b60006144bc602583613775565b91506144c782614460565b604082019050919050565b600060208201905081810360008301526144eb816144af565b9050919050565b7f455243313135355072657365744d696e7465725061757365723a206d7573742060008201527f686176652070617573657220726f6c6520746f20756e70617573650000000000602082015250565b600061454e603b83613775565b9150614559826144f2565b604082019050919050565b6000602082019050818103600083015261457d81614541565b9050919050565b7f455243313135353a206163636f756e747320616e6420696473206c656e67746860008201527f206d69736d617463680000000000000000000000000000000000000000000000602082015250565b60006145e0602983613775565b91506145eb82614584565b604082019050919050565b6000602082019050818103600083015261460f816145d3565b9050919050565b7f4e487b7100000000000000000000000000000000000000000000000000000000600052603260045260246000fd5b60006146508261342d565b91507fffffffffffffffffffffffffffffffffffffffffffffffffffffffffffffffff82036146825761468161414b565b5b600182019050919050565b7f455243313135355072657365744d696e7465725061757365723a206d7573742060008201527f686176652070617573657220726f6c6520746f20706175736500000000000000602082015250565b60006146e9603983613775565b91506146f48261468d565b604082019050919050565b60006020820190508181036000830152614718816146dc565b9050919050565b7f455243313135355072657365744d696e7465725061757365723a206d7573742060008201527f686176652061646d696e20726f6c6520746f2072656d6f76652061646472657360208201527f73657320746f2077686974656c69737400000000000000000000000000000000604082015250565b60006147a1605083613775565b91506147ac8261471f565b606082019050919050565b600060208201905081810360008301526147d081614794565b9050919050565b7f4f70657261746f723a2000000000000000000000000000000000000000000000600082015250565b600061480d600a83613f9d565b9150614818826147d7565b600a82019050919050565b600061482e8261376a565b6148388185613f9d565b9350614848818560208601613786565b80840191505092915050565b7f206973206e6f742077686974656c697374656400000000000000000000000000600082015250565b600061488a601383613f9d565b915061489582614854565b601382019050919050565b60006148ab82614800565b91506148b78284614823565b91506148c28261487d565b915081905092915050565b7f496473206d757374206e6f742062652072657065617461626c65000000000000600082015250565b6000614903601a83613775565b915061490e826148cd565b602082019050919050565b60006020820190508181036000830152614932816148f6565b9050919050565b7f4174206c65617374206f6e652070726f7065727479206578636565646564206d60008201527f617820737570706c79206f662031303020746f6b656e732c207472616e73616360208201527f74696f6e20726576657274656400000000000000000000000000000000000000604082015250565b60006149bb604d83613775565b91506149c682614939565b606082019050919050565b600060208201905081810360008301526149ea816149ae565b9050919050565b7f455243313135355072657365744d696e7465725061757365723a206d7573742060008201527f686176652061646d696e20726f6c6520746f206164642061646472657373657360208201527f20746f2077686974656c69737400000000000000000000000000000000000000604082015250565b6000614a73604d83613775565b9150614a7e826149f1565b606082019050919050565b60006020820190508181036000830152614aa281614a66565b9050919050565b7f455243313135353a206d696e7420746f20746865207a65726f2061646472657360008201527f7300000000000000000000000000000000000000000000000000000000000000602082015250565b6000614b05602183613775565b9150614b1082614aa9565b604082019050919050565b60006020820190508181036000830152614b3481614af8565b9050919050565b6000604082019050614b5060008301856134a3565b614b5d60208301846134a3565b9392505050565b7f455243313135353a2063616c6c6572206973206e6f7420746f6b656e206f776e60008201527f6572206e6f7220617070726f7665640000000000000000000000000000000000602082015250565b6000614bc0602f83613775565b9150614bcb82614b64565b604082019050919050565b60006020820190508181036000830152614bef81614bb3565b9050919050565b7f416363657373436f6e74726f6c3a2063616e206f6e6c792072656e6f756e636560008201527f20726f6c657320666f722073656c660000000000000000000000000000000000602082015250565b6000614c52602f83613775565b9150614c5d82614bf6565b604082019050919050565b60006020820190508181036000830152614c8181614c45565b9050919050565b7f455243313135353a2069647320616e6420616d6f756e7473206c656e6774682060008201527f6d69736d61746368000000000000000000000000000000000000000000000000602082015250565b6000614ce4602883613775565b9150614cef82614c88565b604082019050919050565b60006020820190508181036000830152614d1381614cd7565b9050919050565b60006040820190508181036000830152614d348185613c37565b90508181036020830152614d488184613c37565b90509392505050565b600081519050919050565b600082825260208201905092915050565b6000614d7882614d51565b614d828185614d5c565b9350614d92818560208601613786565b614d9b81613592565b840191505092915050565b600060a082019050614dbb6000830188613cf7565b614dc86020830187613cf7565b614dd560408301866134a3565b614de260608301856134a3565b8181036080830152614df48184614d6d565b90509695505050505050565b600081519050614e0f816134f9565b92915050565b600060208284031215614e2b57614e2a6133c5565b5b6000614e3984828501614e00565b91505092915050565b60008160e01c9050919050565b600060033d1115614e6e5760046000803e614e6b600051614e42565b90505b90565b600060443d10614efe57614e836133bb565b60043d036004823e80513d602482011167ffffffffffffffff82111715614eab575050614efe565b808201805167ffffffffffffffff811115614ec95750505050614efe565b80602083010160043d038501811115614ee6575050505050614efe565b614ef5826020018501866135d2565b82955050505050505b90565b7f455243313135353a207472616e7366657220746f206e6f6e204552433131353560008201527f526563656976657220696d706c656d656e746572000000000000000000000000602082015250565b6000614f5d603483613775565b9150614f6882614f01565b604082019050919050565b60006020820190508181036000830152614f8c81614f50565b9050919050565b7f455243313135353a204552433131353552656365697665722072656a6563746560008201527f6420746f6b656e73000000000000000000000000000000000000000000000000602082015250565b6000614fef602883613775565b9150614ffa82614f93565b604082019050919050565b6000602082019050818103600083015261501e81614fe2565b9050919050565b7f455243313135353a207472616e7366657220746f20746865207a65726f20616460008201527f6472657373000000000000000000000000000000000000000000000000000000602082015250565b6000615081602583613775565b915061508c82615025565b604082019050919050565b600060208201905081810360008301526150b081615074565b9050919050565b7f455243313135353a20696e73756666696369656e742062616c616e636520666f60008201527f72207472616e7366657200000000000000000000000000000000000000000000602082015250565b6000615113602a83613775565b915061511e826150b7565b604082019050919050565b6000602082019050818103600083015261514281615106565b9050919050565b7f5061757361626c653a206e6f7420706175736564000000000000000000000000600082015250565b600061517f601483613775565b915061518a82615149565b602082019050919050565b600060208201905081810360008301526151ae81615172565b9050919050565b7f5061757361626c653a2070617573656400000000000000000000000000000000600082015250565b60006151eb601083613775565b91506151f6826151b5565b602082019050919050565b6000602082019050818103600083015261521a816151de565b9050919050565b600061522c8261342d565b91506000820361523f5761523e61414b565b5b600182039050919050565b7f537472696e67733a20686578206c656e67746820696e73756666696369656e74600082015250565b6000615280602083613775565b915061528b8261524a565b602082019050919050565b600060208201905081810360008301526152af81615273565b9050919050565b7f455243313135353a2073657474696e6720617070726f76616c2073746174757360008201527f20666f722073656c660000000000000000000000000000000000000000000000602082015250565b6000615312602983613775565b915061531d826152b6565b604082019050919050565b6000602082019050818103600083015261534181615305565b9050919050565b600060a08201905061535d6000830188613cf7565b61536a6020830187613cf7565b818103604083015261537c8186613c37565b905081810360608301526153908185613c37565b905081810360808301526153a48184614d6d565b90509695505050505050565b7f455243313135353a206275726e20616d6f756e74206578636565647320746f7460008201527f616c537570706c79000000000000000000000000000000000000000000000000602082015250565b600061540c602883613775565b9150615417826153b0565b604082019050919050565b6000602082019050818103600083015261543b816153ff565b9050919050565b7f416363657373436f6e74726f6c3a206163636f756e7420000000000000000000600082015250565b6000615478601783613f9d565b915061548382615442565b601782019050919050565b7f206973206d697373696e6720726f6c6520000000000000000000000000000000600082015250565b60006154c4601183613f9d565b91506154cf8261548e565b601182019050919050565b60006154e58261546b565b91506154f18285614823565b91506154fc826154b7565b91506155088284614823565b91508190509392505050565b7f455243313135355061757361626c653a20746f6b656e207472616e736665722060008201527f7768696c65207061757365640000000000000000000000000000000000000000602082015250565b6000615570602c83613775565b915061557b82615514565b604082019050919050565b6000602082019050818103600083015261559f81615563565b9050919050565b60006155b18261342d565b91506155bc8361342d565b92508282039050818111156155d4576155d361414b565b5b92915050565b7f4e487b7100000000000000000000000000000000000000000000000000000000600052603160045260246000fdfea264697066735822122028cf18692c11b80109e2714cd63061521b3797b3a962f5574979cd52f142bd8964736f6c63430008110033",
  "immutableReferences": {},
  "source": "// SPDX-License-Identifier: MIT\n\npragma solidity ^0.8.0;\n\nimport \"@openzeppelin/contracts/token/ERC1155/ERC1155.sol\";\nimport \"@openzeppelin/contracts/token/ERC1155/extensions/ERC1155Burnable.sol\";\nimport \"@openzeppelin/contracts/token/ERC1155/extensions/ERC1155Pausable.sol\";\nimport \"@openzeppelin/contracts/access/AccessControlEnumerable.sol\";\nimport \"@openzeppelin/contracts/utils/Context.sol\";\nimport \"@openzeppelin/contracts/token/ERC1155/extensions/ERC1155Supply.sol\";\nimport \"./Whitelist.sol\";\nimport \"./IERC1155PresetMinterPauserSupply.sol\";\n\n/**\n * @dev {ERC1155} token, including:\n *  - a minter role that allows for token minting (creation)\n *  - a pauser role that allows to stop all token transfers\n *\n * This contract uses {AccessControl} to lock permissioned functions using the\n * different roles\n *\n * The account that deploys the contract will be granted the minter and pauser\n * roles, as well as the default admin role, which will let it grant both minter\n * and pauser roles to other accounts.\n */\ncontract ERC1155PresetMinterPauserSupply is IERC1155PresetMinterPauserSupply ,Context, AccessControlEnumerable, ERC1155Pausable, ERC1155Supply, Whitelist{\n    bytes32 public constant MINTER_ROLE = keccak256(\"MINTER_ROLE\");\n    bytes32 public constant PAUSER_ROLE = keccak256(\"PAUSER_ROLE\");\n\n    uint256 private decimals;\n\n\n    /**\n     * @dev Grants `DEFAULT_ADMIN_ROLE`, `MINTER_ROLE`, and `PAUSER_ROLE` to the account that\n     * deploys the contract and whitelists it.\n     */\n    constructor(string memory uri, uint256 _decimals) ERC1155(uri) {\n        require(_decimals <= 5, \"Maximum of 5 decimals\");\n        _setupRole(DEFAULT_ADMIN_ROLE, _msgSender());\n\n        _setupRole(MINTER_ROLE, _msgSender());\n        _setupRole(PAUSER_ROLE, _msgSender());\n\n        _addToWhitelist(_msgSender());\n\n        decimals = _decimals;\n\n        emit Deployed(_msgSender(), block.timestamp);\n    }\n\n    /**\n     * @dev Returns the number of decimals of the smart contract.\n     */\n    function getDecimals() public view virtual override returns(uint256) {\n        return decimals;\n    } \n\n    /**\n     * @dev Creates `amount` new tokens for `to`, of token type `id`.\n     *\n     * See {ERC1155-_mint}.\n     *\n     * Requirements:\n     *\n     * - the caller must first be whitelisted.\n     * - the caller must have the `MINTER_ROLE`.\n     * - maximum supply of each token must not exceed 100 or 100 * 10 ** decimals\n     */\n    function mint(\n        uint256 id,\n        uint256 amount, //amount should be input of real amount * 10 ** decimals\n        bytes memory data\n    ) public virtual override checkWhitelist(_msgSender()) {\n        require(hasRole(MINTER_ROLE, _msgSender()), \"ERC1155PresetMinterPauser: must have minter role to mint\");\n        \n        require(amount + totalSupply(id) <= 100 * 10 ** decimals, \"Maximum supply of 100 tokens is reached\");\n\n        _mint(_msgSender(), id, amount, data);\n    }\n\n    /**\n     * @dev Batched variant of {mint}.\n     *\n     * Requirements:\n     *\n     * - the caller must first be whitelisted.\n     */\n\n    function mintBatch(\n        uint256[] memory ids,\n        uint256[] memory amounts, //amounts should be input of real amounts[] * 10 ** decimals\n        bytes memory data\n    ) public virtual override checkWhitelist(_msgSender()) {\n        require(hasRole(MINTER_ROLE, _msgSender()), \"ERC1155PresetMinterPauser: must have minter role to mint\");\n\n        for (uint256 i = 0; i < ids.length; i++) {\n            \n            for (uint256 j = i + 1; j < ids.length; j++) {\n                require(ids[i] != ids[j], \"Ids must not be repeatable\");\n            }\n\n            require(amounts[i] + totalSupply(ids[i]) <= 100 * 10 ** decimals, \"At least one property exceeded max supply of 100 tokens, transaction reverted\");\n        }\n\n        _mintBatch(_msgSender(), ids, amounts, data);\n    }\n\n    /**\n     * @dev Transfers `amount` tokens of token type `id` from `from` to `to`.\n     *\n     * Emits a {TransferSingle} event.\n     *\n     * Requirements:\n     *\n     * - `from` and `to` must be whitelisted.\n     * - `to` cannot be the zero address.\n     * - If the caller is not `from`, it must have been approved to spend ``from``'s tokens via {setApprovalForAll}.\n     * - `from` must have a balance of tokens of type `id` of at least `amount`.\n     * - If `to` refers to a smart contract, it must implement {IERC1155Receiver-onERC1155Received} and return the\n     * acceptance magic value.\n     *\n     */\n    function safeTransferFrom(address from, address to, uint256 id, uint256 amount, bytes memory data) public virtual override(ERC1155, IERC1155PresetMinterPauserSupply) {\n        require((_isWhitelisted(from) && _isWhitelisted(to)), \"Sender or receiver is not whitelisted\");\n        \n        super.safeTransferFrom(from, to, id, amount, data);\n    }\n\n    /**\n     * @dev xref:ROOT:erc1155.adoc#batch-operations[Batched] version of {safeTransferFrom}.\n     *\n     * Emits a {TransferBatch} event.\n     *\n     * Requirements:\n     *\n     * - `from` and `to` must be whitelisted.\n     * - `ids` and `amounts` must have the same length.\n     * - If `to` refers to a smart contract, it must implement {IERC1155Receiver-onERC1155BatchReceived} and return the\n     * acceptance magic value.\n     */\n    function safeBatchTransferFrom(address from, address to, uint256[] memory ids, uint256[] memory amounts, bytes memory data) public virtual override(ERC1155, IERC1155PresetMinterPauserSupply) {\n        require((_isWhitelisted(from) && _isWhitelisted(to)), \"Sender or receiver is not whitelisted\");\n\n        super.safeBatchTransferFrom(from, to, ids, amounts, data);\n    }\n\n    /**\n     * @dev Grants or revokes permission to `operator` to transfer the caller's tokens, according to `approved`,\n     *\n     * Emits an {ApprovalForAll} event.\n     *\n     * Requirements:\n     *\n     * - `operator` must be whitelisted.\n     * - `operator` cannot be the caller.\n     */\n    function setApprovalForAll(address operator, bool approved) public virtual override(ERC1155, IERC1155PresetMinterPauserSupply) {\n        require(_isWhitelisted(operator), string(abi.encodePacked(\"Operator: \", Strings.toHexString(operator), \" is not whitelisted\")));\n        \n        super.setApprovalForAll(operator, approved);\n    }\n\n    /**\n     * @dev Pauses all token transfers.\n     *\n     * See {ERC1155Pausable} and {Pausable-_pause}.\n     *\n     * Requirements:\n     *\n     * - the caller must first be whitelisted.\n     * - the caller must have the `PAUSER_ROLE`.\n     */\n    function pause() public virtual override checkWhitelist(_msgSender()) { \n        require(hasRole(PAUSER_ROLE, _msgSender()), \"ERC1155PresetMinterPauser: must have pauser role to pause\");\n        _pause();\n    }\n\n    /**\n     * @dev Unpauses all token transfers.\n     *\n     * See {ERC1155Pausable} and {Pausable-_unpause}.\n     *\n     * Requirements:\n     *\n     * - the caller must first be whitelisted.\n     * - the caller must have the `PAUSER_ROLE`.\n     */\n    function unpause() public virtual override checkWhitelist(_msgSender()) {\n        require(hasRole(PAUSER_ROLE, _msgSender()), \"ERC1155PresetMinterPauser: must have pauser role to unpause\");\n        _unpause();\n    }\n\n    /**\n     * @dev See {IERC165-supportsInterface}.\n     */\n    function supportsInterface(bytes4 interfaceId)\n        public\n        view\n        virtual\n        override(AccessControlEnumerable, ERC1155, IERC1155PresetMinterPauserSupply)\n        returns (bool)\n    {\n        return super.supportsInterface(interfaceId);\n    }\n\n    function _beforeTokenTransfer(\n        address operator,\n        address from,\n        address to,\n        uint256[] memory ids,\n        uint256[] memory amounts,\n        bytes memory data\n    ) internal virtual override(ERC1155Pausable, ERC1155Supply) {\n        super._beforeTokenTransfer(operator, from, to, ids, amounts, data);\n    }\n\n    /**\n     * @dev Grants `role` to `account`\n     *\n     * If `account` had not been already granted `role`, emits a {RoleGranted}\n     * event.\n     *\n     * Requirements:\n     *\n     *  - the `account` must be whitelisted.\n     *  - the caller must have `role`'s admin role.\n     *\n     * May emit a {RoleGranted} event.\n     */\n    function grantRole(bytes32 role, address account) public virtual override(AccessControl, IAccessControl, IERC1155PresetMinterPauserSupply) checkWhitelist(account) {\n        super.grantRole(role, account);\n    }\n\n    /**\n     * @dev Revokes `role` from `account`\n     *\n     * If `account` had been granted `role`, emits a {RoleRevoked} event.\n     *\n     * Requirements:\n     *\n     * - the caller must have ``role``'s admin role.\n     *\n     * May emit a {RoleRevoked} event.\n     */\n    function revokeRole(bytes32 role, address account) public virtual override(AccessControl, IAccessControl, IERC1155PresetMinterPauserSupply) {\n        super.revokeRole(role, account);\n    }\n\n    /**\n     * @dev Revokes `role` from the calling account\n     *\n     * Roles are often managed via {grantRole} and {revokeRole}: this function's\n     * purpose is to provide a mechanism for accounts to lose their privileges\n     * if they are compromised (such as when a trusted device is misplaced).\n     *\n     * If the calling account had been revoked `role`, emits a {RoleRevoked}\n     * event.\n     *\n     * Requirements:\n     *\n     * - the caller must be `account`.\n     *\n     * May emit a {RoleRevoked} event.\n     */\n    function renounceRole(bytes32 role, address account) public virtual override(AccessControl, IAccessControl, IERC1155PresetMinterPauserSupply) {\n        super.renounceRole(role, account);\n    }\n\n    /**\n     * @dev Returns if `account` is whitelisted or not.\n     *\n     */\n    function isWhitelisted(address account) public view virtual override returns(bool){\n       return _isWhitelisted(account);\n    }\n\n    /**\n     * @dev Whitelists `account`.\n     *\n     * Requirements:\n     *\n     * - the caller must have DEFAULT_ADMIN_ROLE role.\n     *\n     * Emits a {AddedToWhitelist} event.\n     */\n    function addToWhitelist(address account) public virtual override {\n        require(hasRole(DEFAULT_ADMIN_ROLE, _msgSender()), \"ERC1155PresetMinterPauser: must have admin role to add addresses to whitelist\");\n\n        _addToWhitelist(account);\n    }\n\n    /**\n     * @dev Removes `account` from whitelist.\n     *\n     * Requirements:\n     *\n     * - the caller must have DEFAULT_ADMIN_ROLE role.\n     *\n     * Emits a {RemovedFromWhitelist} event.\n     */\n    function removeFromWhitelist(address account) public virtual override {\n        require(hasRole(DEFAULT_ADMIN_ROLE, _msgSender()), \"ERC1155PresetMinterPauser: must have admin role to remove addresses to whitelist\");\n\n        _removeFromWhitelist(account);\n    }\n}",
  "sourcePath": "/home/fabio/Desktop/assettokenization/contracts/ERC1155PresetMinterPauserSupply.sol",
  "compiler": {
    "name": "solc",
    "version": "0.8.17+commit.8df45f5f.Emscripten.clang"
  },
  "schemaVersion": "3.4.10",
  "updatedAt": "2022-10-13T14:46:16.775Z",
  "networkType": "ethereum",
  "devdoc": {
    "details": "{ERC1155} token, including:  - a minter role that allows for token minting (creation)  - a pauser role that allows to stop all token transfers This contract uses {AccessControl} to lock permissioned functions using the different roles The account that deploys the contract will be granted the minter and pauser roles, as well as the default admin role, which will let it grant both minter and pauser roles to other accounts.",
    "kind": "dev",
    "methods": {
      "addToWhitelist(address)": {
        "details": "Whitelists `account`. Requirements: - the caller must have DEFAULT_ADMIN_ROLE role. Emits a {AddedToWhitelist} event."
      },
      "balanceOf(address,uint256)": {
        "details": "See {IERC1155-balanceOf}. Requirements: - `account` cannot be the zero address."
      },
      "balanceOfBatch(address[],uint256[])": {
        "details": "See {IERC1155-balanceOfBatch}. Requirements: - `accounts` and `ids` must have the same length."
      },
      "constructor": {
        "details": "Grants `DEFAULT_ADMIN_ROLE`, `MINTER_ROLE`, and `PAUSER_ROLE` to the account that deploys the contract and whitelists it."
      },
      "exists(uint256)": {
        "details": "Indicates whether any token exist with a given id, or not."
      },
      "getDecimals()": {
        "details": "Returns the number of decimals of the smart contract."
      },
      "getRoleAdmin(bytes32)": {
        "details": "Returns the admin role that controls `role`. See {grantRole} and {revokeRole}. To change a role's admin, use {_setRoleAdmin}."
      },
      "getRoleMember(bytes32,uint256)": {
        "details": "Returns one of the accounts that have `role`. `index` must be a value between 0 and {getRoleMemberCount}, non-inclusive. Role bearers are not sorted in any particular way, and their ordering may change at any point. WARNING: When using {getRoleMember} and {getRoleMemberCount}, make sure you perform all queries on the same block. See the following https://forum.openzeppelin.com/t/iterating-over-elements-on-enumerableset-in-openzeppelin-contracts/2296[forum post] for more information."
      },
      "getRoleMemberCount(bytes32)": {
        "details": "Returns the number of accounts that have `role`. Can be used together with {getRoleMember} to enumerate all bearers of a role."
      },
      "grantRole(bytes32,address)": {
        "details": "Grants `role` to `account` If `account` had not been already granted `role`, emits a {RoleGranted} event. Requirements:  - the `account` must be whitelisted.  - the caller must have `role`'s admin role. May emit a {RoleGranted} event."
      },
      "hasRole(bytes32,address)": {
        "details": "Returns `true` if `account` has been granted `role`."
      },
      "isApprovedForAll(address,address)": {
        "details": "See {IERC1155-isApprovedForAll}."
      },
      "isWhitelisted(address)": {
        "details": "Returns if `account` is whitelisted or not."
      },
      "mint(uint256,uint256,bytes)": {
        "details": "Creates `amount` new tokens for `to`, of token type `id`. See {ERC1155-_mint}. Requirements: - the caller must first be whitelisted. - the caller must have the `MINTER_ROLE`. - maximum supply of each token must not exceed 100 or 100 * 10 ** decimals"
      },
      "mintBatch(uint256[],uint256[],bytes)": {
        "details": "Batched variant of {mint}. Requirements: - the caller must first be whitelisted."
      },
      "pause()": {
        "details": "Pauses all token transfers. See {ERC1155Pausable} and {Pausable-_pause}. Requirements: - the caller must first be whitelisted. - the caller must have the `PAUSER_ROLE`."
      },
      "paused()": {
        "details": "Returns true if the contract is paused, and false otherwise."
      },
      "removeFromWhitelist(address)": {
        "details": "Removes `account` from whitelist. Requirements: - the caller must have DEFAULT_ADMIN_ROLE role. Emits a {RemovedFromWhitelist} event."
      },
      "renounceRole(bytes32,address)": {
        "details": "Revokes `role` from the calling account Roles are often managed via {grantRole} and {revokeRole}: this function's purpose is to provide a mechanism for accounts to lose their privileges if they are compromised (such as when a trusted device is misplaced). If the calling account had been revoked `role`, emits a {RoleRevoked} event. Requirements: - the caller must be `account`. May emit a {RoleRevoked} event."
      },
      "revokeRole(bytes32,address)": {
        "details": "Revokes `role` from `account` If `account` had been granted `role`, emits a {RoleRevoked} event. Requirements: - the caller must have ``role``'s admin role. May emit a {RoleRevoked} event."
      },
      "safeBatchTransferFrom(address,address,uint256[],uint256[],bytes)": {
        "details": "xref:ROOT:erc1155.adoc#batch-operations[Batched] version of {safeTransferFrom}. Emits a {TransferBatch} event. Requirements: - `from` and `to` must be whitelisted. - `ids` and `amounts` must have the same length. - If `to` refers to a smart contract, it must implement {IERC1155Receiver-onERC1155BatchReceived} and return the acceptance magic value."
      },
      "safeTransferFrom(address,address,uint256,uint256,bytes)": {
        "details": "Transfers `amount` tokens of token type `id` from `from` to `to`. Emits a {TransferSingle} event. Requirements: - `from` and `to` must be whitelisted. - `to` cannot be the zero address. - If the caller is not `from`, it must have been approved to spend ``from``'s tokens via {setApprovalForAll}. - `from` must have a balance of tokens of type `id` of at least `amount`. - If `to` refers to a smart contract, it must implement {IERC1155Receiver-onERC1155Received} and return the acceptance magic value."
      },
      "setApprovalForAll(address,bool)": {
        "details": "Grants or revokes permission to `operator` to transfer the caller's tokens, according to `approved`, Emits an {ApprovalForAll} event. Requirements: - `operator` must be whitelisted. - `operator` cannot be the caller."
      },
      "supportsInterface(bytes4)": {
        "details": "See {IERC165-supportsInterface}."
      },
      "totalSupply(uint256)": {
        "details": "Total amount of tokens in with a given id."
      },
      "unpause()": {
        "details": "Unpauses all token transfers. See {ERC1155Pausable} and {Pausable-_unpause}. Requirements: - the caller must first be whitelisted. - the caller must have the `PAUSER_ROLE`."
      },
      "uri(uint256)": {
        "details": "See {IERC1155MetadataURI-uri}. This implementation returns the same URI for *all* token types. It relies on the token type ID substitution mechanism https://eips.ethereum.org/EIPS/eip-1155#metadata[defined in the EIP]. Clients calling this function must replace the `\\{id\\}` substring with the actual token type ID."
      }
    },
    "version": 1
  },
  "userdoc": {
    "kind": "user",
    "methods": {},
    "version": 1
  }
}