{
  "contractName": "ERC1155PresetMinterPauserSupply",
  "abi": [
    {
      "inputs": [
        {
          "internalType": "string",
          "name": "uri",
          "type": "string"
        },
        {
          "internalType": "uint256",
          "name": "_decimals",
          "type": "uint256"
        }
      ],
      "stateMutability": "nonpayable",
      "type": "constructor"
    },
    {
      "anonymous": false,
      "inputs": [
        {
          "indexed": true,
          "internalType": "address",
          "name": "admin",
          "type": "address"
        },
        {
          "indexed": true,
          "internalType": "address",
          "name": "addedAccount",
          "type": "address"
        }
      ],
      "name": "AddedToWhitelist",
      "type": "event"
    },
    {
      "anonymous": false,
      "inputs": [
        {
          "indexed": true,
          "internalType": "address",
          "name": "account",
          "type": "address"
        },
        {
          "indexed": true,
          "internalType": "address",
          "name": "operator",
          "type": "address"
        },
        {
          "indexed": false,
          "internalType": "bool",
          "name": "approved",
          "type": "bool"
        }
      ],
      "name": "ApprovalForAll",
      "type": "event"
    },
    {
      "anonymous": false,
      "inputs": [
        {
          "indexed": true,
          "internalType": "address",
          "name": "deployer",
          "type": "address"
        },
        {
          "indexed": false,
          "internalType": "uint256",
          "name": "timestamp",
          "type": "uint256"
        }
      ],
      "name": "Deployed",
      "type": "event"
    },
    {
      "anonymous": false,
      "inputs": [
        {
          "indexed": false,
          "internalType": "address",
          "name": "account",
          "type": "address"
        }
      ],
      "name": "Paused",
      "type": "event"
    },
    {
      "anonymous": false,
      "inputs": [
        {
          "indexed": true,
          "internalType": "address",
          "name": "admin",
          "type": "address"
        },
        {
          "indexed": true,
          "internalType": "address",
          "name": "removedAccount",
          "type": "address"
        }
      ],
      "name": "RemovedFromWhitelist",
      "type": "event"
    },
    {
      "anonymous": false,
      "inputs": [
        {
          "indexed": true,
          "internalType": "bytes32",
          "name": "role",
          "type": "bytes32"
        },
        {
          "indexed": true,
          "internalType": "bytes32",
          "name": "previousAdminRole",
          "type": "bytes32"
        },
        {
          "indexed": true,
          "internalType": "bytes32",
          "name": "newAdminRole",
          "type": "bytes32"
        }
      ],
      "name": "RoleAdminChanged",
      "type": "event"
    },
    {
      "anonymous": false,
      "inputs": [
        {
          "indexed": true,
          "internalType": "bytes32",
          "name": "role",
          "type": "bytes32"
        },
        {
          "indexed": true,
          "internalType": "address",
          "name": "account",
          "type": "address"
        },
        {
          "indexed": true,
          "internalType": "address",
          "name": "sender",
          "type": "address"
        }
      ],
      "name": "RoleGranted",
      "type": "event"
    },
    {
      "anonymous": false,
      "inputs": [
        {
          "indexed": true,
          "internalType": "bytes32",
          "name": "role",
          "type": "bytes32"
        },
        {
          "indexed": true,
          "internalType": "address",
          "name": "account",
          "type": "address"
        },
        {
          "indexed": true,
          "internalType": "address",
          "name": "sender",
          "type": "address"
        }
      ],
      "name": "RoleRevoked",
      "type": "event"
    },
    {
      "anonymous": false,
      "inputs": [
        {
          "indexed": true,
          "internalType": "address",
          "name": "operator",
          "type": "address"
        },
        {
          "indexed": true,
          "internalType": "address",
          "name": "from",
          "type": "address"
        },
        {
          "indexed": true,
          "internalType": "address",
          "name": "to",
          "type": "address"
        },
        {
          "indexed": false,
          "internalType": "uint256[]",
          "name": "ids",
          "type": "uint256[]"
        },
        {
          "indexed": false,
          "internalType": "uint256[]",
          "name": "values",
          "type": "uint256[]"
        }
      ],
      "name": "TransferBatch",
      "type": "event"
    },
    {
      "anonymous": false,
      "inputs": [
        {
          "indexed": true,
          "internalType": "address",
          "name": "operator",
          "type": "address"
        },
        {
          "indexed": true,
          "internalType": "address",
          "name": "from",
          "type": "address"
        },
        {
          "indexed": true,
          "internalType": "address",
          "name": "to",
          "type": "address"
        },
        {
          "indexed": false,
          "internalType": "uint256",
          "name": "id",
          "type": "uint256"
        },
        {
          "indexed": false,
          "internalType": "uint256",
          "name": "value",
          "type": "uint256"
        }
      ],
      "name": "TransferSingle",
      "type": "event"
    },
    {
      "anonymous": false,
      "inputs": [
        {
          "indexed": false,
          "internalType": "string",
          "name": "value",
          "type": "string"
        },
        {
          "indexed": true,
          "internalType": "uint256",
          "name": "id",
          "type": "uint256"
        }
      ],
      "name": "URI",
      "type": "event"
    },
    {
      "anonymous": false,
      "inputs": [
        {
          "indexed": false,
          "internalType": "address",
          "name": "account",
          "type": "address"
        }
      ],
      "name": "Unpaused",
      "type": "event"
    },
    {
      "inputs": [],
      "name": "DEFAULT_ADMIN_ROLE",
      "outputs": [
        {
          "internalType": "bytes32",
          "name": "",
          "type": "bytes32"
        }
      ],
      "stateMutability": "view",
      "type": "function",
      "constant": true
    },
    {
      "inputs": [],
      "name": "MINTER_ROLE",
      "outputs": [
        {
          "internalType": "bytes32",
          "name": "",
          "type": "bytes32"
        }
      ],
      "stateMutability": "view",
      "type": "function",
      "constant": true
    },
    {
      "inputs": [],
      "name": "PAUSER_ROLE",
      "outputs": [
        {
          "internalType": "bytes32",
          "name": "",
          "type": "bytes32"
        }
      ],
      "stateMutability": "view",
      "type": "function",
      "constant": true
    },
    {
      "inputs": [
        {
          "internalType": "address",
          "name": "account",
          "type": "address"
        },
        {
          "internalType": "uint256",
          "name": "id",
          "type": "uint256"
        }
      ],
      "name": "balanceOf",
      "outputs": [
        {
          "internalType": "uint256",
          "name": "",
          "type": "uint256"
        }
      ],
      "stateMutability": "view",
      "type": "function",
      "constant": true
    },
    {
      "inputs": [
        {
          "internalType": "address[]",
          "name": "accounts",
          "type": "address[]"
        },
        {
          "internalType": "uint256[]",
          "name": "ids",
          "type": "uint256[]"
        }
      ],
      "name": "balanceOfBatch",
      "outputs": [
        {
          "internalType": "uint256[]",
          "name": "",
          "type": "uint256[]"
        }
      ],
      "stateMutability": "view",
      "type": "function",
      "constant": true
    },
    {
      "inputs": [
        {
          "internalType": "uint256",
          "name": "id",
          "type": "uint256"
        }
      ],
      "name": "exists",
      "outputs": [
        {
          "internalType": "bool",
          "name": "",
          "type": "bool"
        }
      ],
      "stateMutability": "view",
      "type": "function",
      "constant": true
    },
    {
      "inputs": [
        {
          "internalType": "bytes32",
          "name": "role",
          "type": "bytes32"
        }
      ],
      "name": "getRoleAdmin",
      "outputs": [
        {
          "internalType": "bytes32",
          "name": "",
          "type": "bytes32"
        }
      ],
      "stateMutability": "view",
      "type": "function",
      "constant": true
    },
    {
      "inputs": [
        {
          "internalType": "bytes32",
          "name": "role",
          "type": "bytes32"
        },
        {
          "internalType": "uint256",
          "name": "index",
          "type": "uint256"
        }
      ],
      "name": "getRoleMember",
      "outputs": [
        {
          "internalType": "address",
          "name": "",
          "type": "address"
        }
      ],
      "stateMutability": "view",
      "type": "function",
      "constant": true
    },
    {
      "inputs": [
        {
          "internalType": "bytes32",
          "name": "role",
          "type": "bytes32"
        }
      ],
      "name": "getRoleMemberCount",
      "outputs": [
        {
          "internalType": "uint256",
          "name": "",
          "type": "uint256"
        }
      ],
      "stateMutability": "view",
      "type": "function",
      "constant": true
    },
    {
      "inputs": [
        {
          "internalType": "bytes32",
          "name": "role",
          "type": "bytes32"
        },
        {
          "internalType": "address",
          "name": "account",
          "type": "address"
        }
      ],
      "name": "hasRole",
      "outputs": [
        {
          "internalType": "bool",
          "name": "",
          "type": "bool"
        }
      ],
      "stateMutability": "view",
      "type": "function",
      "constant": true
    },
    {
      "inputs": [
        {
          "internalType": "address",
          "name": "account",
          "type": "address"
        },
        {
          "internalType": "address",
          "name": "operator",
          "type": "address"
        }
      ],
      "name": "isApprovedForAll",
      "outputs": [
        {
          "internalType": "bool",
          "name": "",
          "type": "bool"
        }
      ],
      "stateMutability": "view",
      "type": "function",
      "constant": true
    },
    {
      "inputs": [],
      "name": "name",
      "outputs": [
        {
          "internalType": "string",
          "name": "",
          "type": "string"
        }
      ],
      "stateMutability": "view",
      "type": "function",
      "constant": true
    },
    {
      "inputs": [],
      "name": "paused",
      "outputs": [
        {
          "internalType": "bool",
          "name": "",
          "type": "bool"
        }
      ],
      "stateMutability": "view",
      "type": "function",
      "constant": true
    },
    {
      "inputs": [
        {
          "internalType": "uint256",
          "name": "id",
          "type": "uint256"
        }
      ],
      "name": "totalSupply",
      "outputs": [
        {
          "internalType": "uint256",
          "name": "",
          "type": "uint256"
        }
      ],
      "stateMutability": "view",
      "type": "function",
      "constant": true
    },
    {
      "inputs": [
        {
          "internalType": "uint256",
          "name": "",
          "type": "uint256"
        }
      ],
      "name": "uri",
      "outputs": [
        {
          "internalType": "string",
          "name": "",
          "type": "string"
        }
      ],
      "stateMutability": "view",
      "type": "function",
      "constant": true
    },
    {
      "inputs": [],
      "name": "getDecimals",
      "outputs": [
        {
          "internalType": "uint256",
          "name": "",
          "type": "uint256"
        }
      ],
      "stateMutability": "view",
      "type": "function",
      "constant": true
    },
    {
      "inputs": [
        {
          "internalType": "uint256",
          "name": "id",
          "type": "uint256"
        },
        {
          "internalType": "uint256",
          "name": "amount",
          "type": "uint256"
        },
        {
          "internalType": "bytes",
          "name": "data",
          "type": "bytes"
        }
      ],
      "name": "mint",
      "outputs": [],
      "stateMutability": "nonpayable",
      "type": "function"
    },
    {
      "inputs": [
        {
          "internalType": "uint256[]",
          "name": "ids",
          "type": "uint256[]"
        },
        {
          "internalType": "uint256[]",
          "name": "amounts",
          "type": "uint256[]"
        },
        {
          "internalType": "bytes",
          "name": "data",
          "type": "bytes"
        }
      ],
      "name": "mintBatch",
      "outputs": [],
      "stateMutability": "nonpayable",
      "type": "function"
    },
    {
      "inputs": [
        {
          "internalType": "address",
          "name": "from",
          "type": "address"
        },
        {
          "internalType": "address",
          "name": "to",
          "type": "address"
        },
        {
          "internalType": "uint256",
          "name": "id",
          "type": "uint256"
        },
        {
          "internalType": "uint256",
          "name": "amount",
          "type": "uint256"
        },
        {
          "internalType": "bytes",
          "name": "data",
          "type": "bytes"
        }
      ],
      "name": "safeTransferFrom",
      "outputs": [],
      "stateMutability": "nonpayable",
      "type": "function"
    },
    {
      "inputs": [
        {
          "internalType": "address",
          "name": "from",
          "type": "address"
        },
        {
          "internalType": "address",
          "name": "to",
          "type": "address"
        },
        {
          "internalType": "uint256[]",
          "name": "ids",
          "type": "uint256[]"
        },
        {
          "internalType": "uint256[]",
          "name": "amounts",
          "type": "uint256[]"
        },
        {
          "internalType": "bytes",
          "name": "data",
          "type": "bytes"
        }
      ],
      "name": "safeBatchTransferFrom",
      "outputs": [],
      "stateMutability": "nonpayable",
      "type": "function"
    },
    {
      "inputs": [
        {
          "internalType": "address",
          "name": "operator",
          "type": "address"
        },
        {
          "internalType": "bool",
          "name": "approved",
          "type": "bool"
        }
      ],
      "name": "setApprovalForAll",
      "outputs": [],
      "stateMutability": "nonpayable",
      "type": "function"
    },
    {
      "inputs": [],
      "name": "pause",
      "outputs": [],
      "stateMutability": "nonpayable",
      "type": "function"
    },
    {
      "inputs": [],
      "name": "unpause",
      "outputs": [],
      "stateMutability": "nonpayable",
      "type": "function"
    },
    {
      "inputs": [
        {
          "internalType": "bytes4",
          "name": "interfaceId",
          "type": "bytes4"
        }
      ],
      "name": "supportsInterface",
      "outputs": [
        {
          "internalType": "bool",
          "name": "",
          "type": "bool"
        }
      ],
      "stateMutability": "view",
      "type": "function",
      "constant": true
    },
    {
      "inputs": [
        {
          "internalType": "bytes32",
          "name": "role",
          "type": "bytes32"
        },
        {
          "internalType": "address",
          "name": "account",
          "type": "address"
        }
      ],
      "name": "grantRole",
      "outputs": [],
      "stateMutability": "nonpayable",
      "type": "function"
    },
    {
      "inputs": [
        {
          "internalType": "bytes32",
          "name": "role",
          "type": "bytes32"
        },
        {
          "internalType": "address",
          "name": "account",
          "type": "address"
        }
      ],
      "name": "revokeRole",
      "outputs": [],
      "stateMutability": "nonpayable",
      "type": "function"
    },
    {
      "inputs": [
        {
          "internalType": "bytes32",
          "name": "role",
          "type": "bytes32"
        },
        {
          "internalType": "address",
          "name": "account",
          "type": "address"
        }
      ],
      "name": "renounceRole",
      "outputs": [],
      "stateMutability": "nonpayable",
      "type": "function"
    },
    {
      "inputs": [
        {
          "internalType": "address",
          "name": "account",
          "type": "address"
        }
      ],
      "name": "isWhitelisted",
      "outputs": [
        {
          "internalType": "bool",
          "name": "",
          "type": "bool"
        }
      ],
      "stateMutability": "view",
      "type": "function",
      "constant": true
    },
    {
      "inputs": [
        {
          "internalType": "address",
          "name": "account",
          "type": "address"
        }
      ],
      "name": "addToWhitelist",
      "outputs": [],
      "stateMutability": "nonpayable",
      "type": "function"
    },
    {
      "inputs": [
        {
          "internalType": "address",
          "name": "account",
          "type": "address"
        }
      ],
      "name": "removeFromWhitelist",
      "outputs": [],
      "stateMutability": "nonpayable",
      "type": "function"
    }
  ],
  "bytecode": "0x60806040523480156200001157600080fd5b506040516200629a3803806200629a833981810160405281019062000037919062000755565b8162000049816200022760201b60201c565b506000600560006101000a81548160ff0219169083151502179055506005811115620000ac576040517f08c379a0000000000000000000000000000000000000000000000000000000008152600401620000a3906200081c565b60405180910390fd5b620000d06000801b620000c46200023c60201b60201c565b6200024460201b60201c565b620001117f9f2df0fed2c77648de5860a4cc508cd0818c85b8b8a1ab4ceeef8d981c8956a6620001056200023c60201b60201c565b6200024460201b60201c565b620001527f65d7a28e3265b37a6474929f336521b332c1681b933f6cb9f3376673440d862a620001466200023c60201b60201c565b6200024460201b60201c565b62000172620001666200023c60201b60201c565b6200025a60201b60201c565b6040518060400160405280600a81526020017f47726f756e645a65726f0000000000000000000000000000000000000000000081525060099081620001b8919062000a7f565b5080600881905550620001d06200023c60201b60201c565b73ffffffffffffffffffffffffffffffffffffffff167fb03c53b28e78a88e31607a27e1fa48234dce28d5d9d9ec7b295aeb02e674a1e14260405162000217919062000b77565b60405180910390a2505062000b94565b806004908162000238919062000a7f565b5050565b600033905090565b6200025682826200030f60201b60201c565b5050565b6001600760008373ffffffffffffffffffffffffffffffffffffffff1673ffffffffffffffffffffffffffffffffffffffff16815260200190815260200160002060006101000a81548160ff0219169083151502179055508073ffffffffffffffffffffffffffffffffffffffff163373ffffffffffffffffffffffffffffffffffffffff167f0c4b48e75a1f7ab0a9a2f786b5d6c1f7789020403bff177fb54d46edb89ccc0060405160405180910390a350565b6200032682826200035760201b620013941760201c565b6200035281600160008581526020019081526020016000206200044860201b620014741790919060201c565b505050565b6200036982826200048060201b60201c565b6200044457600160008084815260200190815260200160002060000160008373ffffffffffffffffffffffffffffffffffffffff1673ffffffffffffffffffffffffffffffffffffffff16815260200190815260200160002060006101000a81548160ff021916908315150217905550620003e96200023c60201b60201c565b73ffffffffffffffffffffffffffffffffffffffff168173ffffffffffffffffffffffffffffffffffffffff16837f2f8788117e7eff1d82e926ec794901d17c78024a50270940304540a733656f0d60405160405180910390a45b5050565b600062000478836000018373ffffffffffffffffffffffffffffffffffffffff1660001b620004ea60201b60201c565b905092915050565b600080600084815260200190815260200160002060000160008373ffffffffffffffffffffffffffffffffffffffff1673ffffffffffffffffffffffffffffffffffffffff16815260200190815260200160002060009054906101000a900460ff16905092915050565b6000620004fe83836200056460201b60201c565b620005595782600001829080600181540180825580915050600190039060005260206000200160009091909190915055826000018054905083600101600084815260200190815260200160002081905550600190506200055e565b600090505b92915050565b600080836001016000848152602001908152602001600020541415905092915050565b6000604051905090565b600080fd5b600080fd5b600080fd5b600080fd5b6000601f19601f8301169050919050565b7f4e487b7100000000000000000000000000000000000000000000000000000000600052604160045260246000fd5b620005f082620005a5565b810181811067ffffffffffffffff82111715620006125762000611620005b6565b5b80604052505050565b60006200062762000587565b9050620006358282620005e5565b919050565b600067ffffffffffffffff821115620006585762000657620005b6565b5b6200066382620005a5565b9050602081019050919050565b60005b838110156200069057808201518184015260208101905062000673565b60008484015250505050565b6000620006b3620006ad846200063a565b6200061b565b905082815260208101848484011115620006d257620006d1620005a0565b5b620006df84828562000670565b509392505050565b600082601f830112620006ff57620006fe6200059b565b5b8151620007118482602086016200069c565b91505092915050565b6000819050919050565b6200072f816200071a565b81146200073b57600080fd5b50565b6000815190506200074f8162000724565b92915050565b600080604083850312156200076f576200076e62000591565b5b600083015167ffffffffffffffff81111562000790576200078f62000596565b5b6200079e85828601620006e7565b9250506020620007b1858286016200073e565b9150509250929050565b600082825260208201905092915050565b7f4d6178696d756d206f66203520646563696d616c730000000000000000000000600082015250565b600062000804601583620007bb565b91506200081182620007cc565b602082019050919050565b600060208201905081810360008301526200083781620007f5565b9050919050565b600081519050919050565b7f4e487b7100000000000000000000000000000000000000000000000000000000600052602260045260246000fd5b600060028204905060018216806200089157607f821691505b602082108103620008a757620008a662000849565b5b50919050565b60008190508160005260206000209050919050565b60006020601f8301049050919050565b600082821b905092915050565b600060088302620009117fffffffffffffffffffffffffffffffffffffffffffffffffffffffffffffffff82620008d2565b6200091d8683620008d2565b95508019841693508086168417925050509392505050565b6000819050919050565b6000620009606200095a62000954846200071a565b62000935565b6200071a565b9050919050565b6000819050919050565b6200097c836200093f565b620009946200098b8262000967565b848454620008df565b825550505050565b600090565b620009ab6200099c565b620009b881848462000971565b505050565b5b81811015620009e057620009d4600082620009a1565b600181019050620009be565b5050565b601f82111562000a2f57620009f981620008ad565b62000a0484620008c2565b8101602085101562000a14578190505b62000a2c62000a2385620008c2565b830182620009bd565b50505b505050565b600082821c905092915050565b600062000a546000198460080262000a34565b1980831691505092915050565b600062000a6f838362000a41565b9150826002028217905092915050565b62000a8a826200083e565b67ffffffffffffffff81111562000aa65762000aa5620005b6565b5b62000ab2825462000878565b62000abf828285620009e4565b600060209050601f83116001811462000af7576000841562000ae2578287015190505b62000aee858262000a61565b86555062000b5e565b601f19841662000b0786620008ad565b60005b8281101562000b315784890151825560018201915060208501945060208101905062000b0a565b8683101562000b51578489015162000b4d601f89168262000a41565b8355505b6001600288020188555050505b505050505050565b62000b71816200071a565b82525050565b600060208201905062000b8e600083018462000b66565b92915050565b6156f68062000ba46000396000f3fe608060405234801561001057600080fd5b50600436106101d95760003560e01c80638ab1d68111610104578063ca15c873116100a2578063e63ab1e911610071578063e63ab1e914610576578063e985e9c514610594578063f0141d84146105c4578063f242432a146105e2576101d9565b8063ca15c873146104f0578063d539139314610520578063d547741f1461053e578063e43252d71461055a576101d9565b8063a217fddf116100de578063a217fddf1461046a578063a22cb46514610488578063bb4351e8146104a4578063bd85b039146104c0576101d9565b80638ab1d681146103ee5780639010d07c1461040a57806391d148541461043a576101d9565b80632f2ff15d1161017c5780634e1273f41161014b5780634e1273f4146103665780634f558e79146103965780635c975abb146103c65780638456cb59146103e4576101d9565b80632f2ff15d146102f457806336568abe146103105780633af32abf1461032c5780633f4ba83a1461035c576101d9565b806308dc9f42116101b857806308dc9f421461025c5780630e89341c14610278578063248a9ca3146102a85780632eb2c2d6146102d8576101d9565b8062fdd58e146101de57806301ffc9a71461020e57806306fdde031461023e575b600080fd5b6101f860048036038101906101f3919061351a565b6105fe565b6040516102059190613569565b60405180910390f35b610228600480360381019061022391906135dc565b6106c7565b6040516102359190613624565b60405180910390f35b6102466106d9565b60405161025391906136cf565b60405180910390f35b61027660048036038101906102719190613826565b610767565b005b610292600480360381019061028d9190613895565b6108d3565b60405161029f91906136cf565b60405180910390f35b6102c260048036038101906102bd91906138f8565b610967565b6040516102cf9190613934565b60405180910390f35b6102f260048036038101906102ed9190613a17565b610986565b005b61030e60048036038101906103099190613ae6565b6109f3565b005b61032a60048036038101906103259190613ae6565b610a6e565b005b61034660048036038101906103419190613b26565b610a7c565b6040516103539190613624565b60405180910390f35b610364610a8e565b005b610380600480360381019061037b9190613c16565b610b7c565b60405161038d9190613d4c565b60405180910390f35b6103b060048036038101906103ab9190613895565b610c95565b6040516103bd9190613624565b60405180910390f35b6103ce610ca9565b6040516103db9190613624565b60405180910390f35b6103ec610cc0565b005b61040860048036038101906104039190613b26565b610dae565b005b610424600480360381019061041f9190613d6e565b610e0d565b6040516104319190613dbd565b60405180910390f35b610454600480360381019061044f9190613ae6565b610e3c565b6040516104619190613624565b60405180910390f35b610472610ea6565b60405161047f9190613934565b60405180910390f35b6104a2600480360381019061049d9190613e04565b610ead565b005b6104be60048036038101906104b99190613e44565b610f2e565b005b6104da60048036038101906104d59190613895565b611193565b6040516104e79190613569565b60405180910390f35b61050a600480360381019061050591906138f8565b6111b0565b6040516105179190613569565b60405180910390f35b6105286111d4565b6040516105359190613934565b60405180910390f35b61055860048036038101906105539190613ae6565b6111f8565b005b610574600480360381019061056f9190613b26565b611206565b005b61057e611265565b60405161058b9190613934565b60405180910390f35b6105ae60048036038101906105a99190613eeb565b611289565b6040516105bb9190613624565b60405180910390f35b6105cc61131d565b6040516105d99190613569565b60405180910390f35b6105fc60048036038101906105f79190613f2b565b611327565b005b60008073ffffffffffffffffffffffffffffffffffffffff168373ffffffffffffffffffffffffffffffffffffffff160361066e576040517f08c379a000000000000000000000000000000000000000000000000000000000815260040161066590614034565b60405180910390fd5b6002600083815260200190815260200160002060008473ffffffffffffffffffffffffffffffffffffffff1673ffffffffffffffffffffffffffffffffffffffff16815260200190815260200160002054905092915050565b60006106d2826114a4565b9050919050565b600980546106e690614083565b80601f016020809104026020016040519081016040528092919081815260200182805461071290614083565b801561075f5780601f106107345761010080835404028352916020019161075f565b820191906000526020600020905b81548152906001019060200180831161074257829003601f168201915b505050505081565b61076f611586565b6107788161158e565b81604051602001610789919061419f565b604051602081830303815290604052906107d9576040517f08c379a00000000000000000000000000000000000000000000000000000000081526004016107d091906136cf565b60405180910390fd5b5061080b7f9f2df0fed2c77648de5860a4cc508cd0818c85b8b8a1ab4ceeef8d981c8956a6610806611586565b610e3c565b61084a576040517f08c379a000000000000000000000000000000000000000000000000000000000815260040161084190614242565b60405180910390fd5b600854600a61085991906143c4565b6064610865919061440f565b61086e85611193565b846108799190614451565b11156108ba576040517f08c379a00000000000000000000000000000000000000000000000000000000081526004016108b1906144f7565b60405180910390fd5b6108cd6108c5611586565b8585856115e4565b50505050565b6060600480546108e290614083565b80601f016020809104026020016040519081016040528092919081815260200182805461090e90614083565b801561095b5780601f106109305761010080835404028352916020019161095b565b820191906000526020600020905b81548152906001019060200180831161093e57829003601f168201915b50505050509050919050565b6000806000838152602001908152602001600020600101549050919050565b61098f8561158e565b80156109a0575061099f8461158e565b5b6109df576040517f08c379a00000000000000000000000000000000000000000000000000000000081526004016109d690614589565b60405180910390fd5b6109ec8585858585611795565b5050505050565b806109fd8161158e565b81604051602001610a0e919061419f565b60405160208183030381529060405290610a5e576040517f08c379a0000000000000000000000000000000000000000000000000000000008152600401610a5591906136cf565b60405180910390fd5b50610a698383611836565b505050565b610a788282611857565b5050565b6000610a878261158e565b9050919050565b610a96611586565b610a9f8161158e565b81604051602001610ab0919061419f565b60405160208183030381529060405290610b00576040517f08c379a0000000000000000000000000000000000000000000000000000000008152600401610af791906136cf565b60405180910390fd5b50610b327f65d7a28e3265b37a6474929f336521b332c1681b933f6cb9f3376673440d862a610b2d611586565b610e3c565b610b71576040517f08c379a0000000000000000000000000000000000000000000000000000000008152600401610b689061461b565b60405180910390fd5b610b796118da565b50565b60608151835114610bc2576040517f08c379a0000000000000000000000000000000000000000000000000000000008152600401610bb9906146ad565b60405180910390fd5b6000835167ffffffffffffffff811115610bdf57610bde6136fb565b5b604051908082528060200260200182016040528015610c0d5781602001602082028036833780820191505090505b50905060005b8451811015610c8a57610c5a858281518110610c3257610c316146cd565b5b6020026020010151858381518110610c4d57610c4c6146cd565b5b60200260200101516105fe565b828281518110610c6d57610c6c6146cd565b5b60200260200101818152505080610c83906146fc565b9050610c13565b508091505092915050565b600080610ca183611193565b119050919050565b6000600560009054906101000a900460ff16905090565b610cc8611586565b610cd18161158e565b81604051602001610ce2919061419f565b60405160208183030381529060405290610d32576040517f08c379a0000000000000000000000000000000000000000000000000000000008152600401610d2991906136cf565b60405180910390fd5b50610d647f65d7a28e3265b37a6474929f336521b332c1681b933f6cb9f3376673440d862a610d5f611586565b610e3c565b610da3576040517f08c379a0000000000000000000000000000000000000000000000000000000008152600401610d9a906147b6565b60405180910390fd5b610dab61193d565b50565b610dc26000801b610dbd611586565b610e3c565b610e01576040517f08c379a0000000000000000000000000000000000000000000000000000000008152600401610df89061486e565b60405180910390fd5b610e0a816119a0565b50565b6000610e348260016000868152602001908152602001600020611a5590919063ffffffff16565b905092915050565b600080600084815260200190815260200160002060000160008373ffffffffffffffffffffffffffffffffffffffff1673ffffffffffffffffffffffffffffffffffffffff16815260200190815260200160002060009054906101000a900460ff16905092915050565b6000801b81565b610eb68261158e565b610ebf83611a6f565b604051602001610ecf9190614957565b60405160208183030381529060405290610f1f576040517f08c379a0000000000000000000000000000000000000000000000000000000008152600401610f1691906136cf565b60405180910390fd5b50610f2a8282611a9c565b5050565b610f36611586565b610f3f8161158e565b81604051602001610f50919061419f565b60405160208183030381529060405290610fa0576040517f08c379a0000000000000000000000000000000000000000000000000000000008152600401610f9791906136cf565b60405180910390fd5b50610fd27f9f2df0fed2c77648de5860a4cc508cd0818c85b8b8a1ab4ceeef8d981c8956a6610fcd611586565b610e3c565b611011576040517f08c379a000000000000000000000000000000000000000000000000000000000815260040161100890614242565b60405180910390fd5b60005b845181101561117957600060018261102c9190614451565b90505b85518110156110c15785818151811061104b5761104a6146cd565b5b6020026020010151868381518110611066576110656146cd565b5b6020026020010151036110ae576040517f08c379a00000000000000000000000000000000000000000000000000000000081526004016110a5906149d0565b60405180910390fd5b80806110b9906146fc565b91505061102f565b50600854600a6110d191906143c4565b60646110dd919061440f565b6111008683815181106110f3576110f26146cd565b5b6020026020010151611193565b858381518110611113576111126146cd565b5b60200260200101516111259190614451565b1115611166576040517f08c379a000000000000000000000000000000000000000000000000000000000815260040161115d90614a88565b60405180910390fd5b8080611171906146fc565b915050611014565b5061118d611185611586565b858585611ab2565b50505050565b600060066000838152602001908152602001600020549050919050565b60006111cd60016000848152602001908152602001600020611cdf565b9050919050565b7f9f2df0fed2c77648de5860a4cc508cd0818c85b8b8a1ab4ceeef8d981c8956a681565b6112028282611cf4565b5050565b61121a6000801b611215611586565b610e3c565b611259576040517f08c379a000000000000000000000000000000000000000000000000000000000815260040161125090614b40565b60405180910390fd5b61126281611d15565b50565b7f65d7a28e3265b37a6474929f336521b332c1681b933f6cb9f3376673440d862a81565b6000600360008473ffffffffffffffffffffffffffffffffffffffff1673ffffffffffffffffffffffffffffffffffffffff16815260200190815260200160002060008373ffffffffffffffffffffffffffffffffffffffff1673ffffffffffffffffffffffffffffffffffffffff16815260200190815260200160002060009054906101000a900460ff16905092915050565b6000600854905090565b6113308561158e565b801561134157506113408461158e565b5b611380576040517f08c379a000000000000000000000000000000000000000000000000000000000815260040161137790614589565b60405180910390fd5b61138d8585858585611dca565b5050505050565b61139e8282610e3c565b61147057600160008084815260200190815260200160002060000160008373ffffffffffffffffffffffffffffffffffffffff1673ffffffffffffffffffffffffffffffffffffffff16815260200190815260200160002060006101000a81548160ff021916908315150217905550611415611586565b73ffffffffffffffffffffffffffffffffffffffff168173ffffffffffffffffffffffffffffffffffffffff16837f2f8788117e7eff1d82e926ec794901d17c78024a50270940304540a733656f0d60405160405180910390a45b5050565b600061149c836000018373ffffffffffffffffffffffffffffffffffffffff1660001b611e6b565b905092915050565b60007fd9b67a26000000000000000000000000000000000000000000000000000000007bffffffffffffffffffffffffffffffffffffffffffffffffffffffff1916827bffffffffffffffffffffffffffffffffffffffffffffffffffffffff1916148061156f57507f0e89341c000000000000000000000000000000000000000000000000000000007bffffffffffffffffffffffffffffffffffffffffffffffffffffffff1916827bffffffffffffffffffffffffffffffffffffffffffffffffffffffff1916145b8061157f575061157e82611edb565b5b9050919050565b600033905090565b6000600760008373ffffffffffffffffffffffffffffffffffffffff1673ffffffffffffffffffffffffffffffffffffffff16815260200190815260200160002060009054906101000a900460ff169050919050565b600073ffffffffffffffffffffffffffffffffffffffff168473ffffffffffffffffffffffffffffffffffffffff1603611653576040517f08c379a000000000000000000000000000000000000000000000000000000000815260040161164a90614bd2565b60405180910390fd5b600061165d611586565b9050600061166a85611f55565b9050600061167785611f55565b905061168883600089858589611fcf565b846002600088815260200190815260200160002060008973ffffffffffffffffffffffffffffffffffffffff1673ffffffffffffffffffffffffffffffffffffffff16815260200190815260200160002060008282546116e89190614451565b925050819055508673ffffffffffffffffffffffffffffffffffffffff16600073ffffffffffffffffffffffffffffffffffffffff168473ffffffffffffffffffffffffffffffffffffffff167fc3d58168c5ae7397731d063d5bbf3d657854427343f4c083240f7aacaa2d0f628989604051611766929190614bf2565b60405180910390a461177d83600089858589611fe5565b61178c83600089898989611fed565b50505050505050565b61179d611586565b73ffffffffffffffffffffffffffffffffffffffff168573ffffffffffffffffffffffffffffffffffffffff1614806117e357506117e2856117dd611586565b611289565b5b611822576040517f08c379a000000000000000000000000000000000000000000000000000000000815260040161181990614c8d565b60405180910390fd5b61182f85858585856121c4565b5050505050565b61183f82610967565b611848816124e8565b61185283836124fc565b505050565b61185f611586565b73ffffffffffffffffffffffffffffffffffffffff168173ffffffffffffffffffffffffffffffffffffffff16146118cc576040517f08c379a00000000000000000000000000000000000000000000000000000000081526004016118c390614d1f565b60405180910390fd5b6118d68282612530565b5050565b6118e2612564565b6000600560006101000a81548160ff0219169083151502179055507f5db9ee0a495bf2e6ff9c91a7834c1ba4fdd244a5e8aa4e537bd38aeae4b073aa611926611586565b6040516119339190613dbd565b60405180910390a1565b6119456125ad565b6001600560006101000a81548160ff0219169083151502179055507f62e78cea01bee320cd4e420270b5ea74000d11b0c9f74754ebdbfc544b05a258611989611586565b6040516119969190613dbd565b60405180910390a1565b6000600760008373ffffffffffffffffffffffffffffffffffffffff1673ffffffffffffffffffffffffffffffffffffffff16815260200190815260200160002060006101000a81548160ff0219169083151502179055508073ffffffffffffffffffffffffffffffffffffffff163373ffffffffffffffffffffffffffffffffffffffff167fd288ab5da2e1f37cf384a1565a3f905ad289b092fbdd31950dbbfef148c04f8860405160405180910390a350565b6000611a6483600001836125f7565b60001c905092915050565b6060611a958273ffffffffffffffffffffffffffffffffffffffff16601460ff16612622565b9050919050565b611aae611aa7611586565b838361285e565b5050565b600073ffffffffffffffffffffffffffffffffffffffff168473ffffffffffffffffffffffffffffffffffffffff1603611b21576040517f08c379a0000000000000000000000000000000000000000000000000000000008152600401611b1890614bd2565b60405180910390fd5b8151835114611b65576040517f08c379a0000000000000000000000000000000000000000000000000000000008152600401611b5c90614db1565b60405180910390fd5b6000611b6f611586565b9050611b8081600087878787611fcf565b60005b8451811015611c3a57838181518110611b9f57611b9e6146cd565b5b602002602001015160026000878481518110611bbe57611bbd6146cd565b5b6020026020010151815260200190815260200160002060008873ffffffffffffffffffffffffffffffffffffffff1673ffffffffffffffffffffffffffffffffffffffff1681526020019081526020016000206000828254611c209190614451565b925050819055508080611c32906146fc565b915050611b83565b508473ffffffffffffffffffffffffffffffffffffffff16600073ffffffffffffffffffffffffffffffffffffffff168273ffffffffffffffffffffffffffffffffffffffff167f4a39dc06d4c0dbc64b70af90fd698a233a518aa5d07e595d983b8c0526c8f7fb8787604051611cb2929190614dd1565b60405180910390a4611cc981600087878787611fe5565b611cd8816000878787876129ca565b5050505050565b6000611ced82600001612ba1565b9050919050565b611cfd82610967565b611d06816124e8565b611d108383612530565b505050565b6001600760008373ffffffffffffffffffffffffffffffffffffffff1673ffffffffffffffffffffffffffffffffffffffff16815260200190815260200160002060006101000a81548160ff0219169083151502179055508073ffffffffffffffffffffffffffffffffffffffff163373ffffffffffffffffffffffffffffffffffffffff167f0c4b48e75a1f7ab0a9a2f786b5d6c1f7789020403bff177fb54d46edb89ccc0060405160405180910390a350565b611dd2611586565b73ffffffffffffffffffffffffffffffffffffffff168573ffffffffffffffffffffffffffffffffffffffff161480611e185750611e1785611e12611586565b611289565b5b611e57576040517f08c379a0000000000000000000000000000000000000000000000000000000008152600401611e4e90614c8d565b60405180910390fd5b611e648585858585612bb2565b5050505050565b6000611e778383612e50565b611ed0578260000182908060018154018082558091505060019003906000526020600020016000909190919091505582600001805490508360010160008481526020019081526020016000208190555060019050611ed5565b600090505b92915050565b60007f5a05180f000000000000000000000000000000000000000000000000000000007bffffffffffffffffffffffffffffffffffffffffffffffffffffffff1916827bffffffffffffffffffffffffffffffffffffffffffffffffffffffff19161480611f4e5750611f4d82612e73565b5b9050919050565b60606000600167ffffffffffffffff811115611f7457611f736136fb565b5b604051908082528060200260200182016040528015611fa25781602001602082028036833780820191505090505b5090508281600081518110611fba57611fb96146cd565b5b60200260200101818152505080915050919050565b611fdd868686868686612eed565b505050505050565b505050505050565b61200c8473ffffffffffffffffffffffffffffffffffffffff166130bd565b156121bc578373ffffffffffffffffffffffffffffffffffffffff1663f23a6e6187878686866040518663ffffffff1660e01b8152600401612052959493929190614e5d565b6020604051808303816000875af192505050801561208e57506040513d601f19601f8201168201806040525081019061208b9190614ecc565b60015b6121335761209a614f06565b806308c379a0036120f657506120ae614f28565b806120b957506120f8565b806040517f08c379a00000000000000000000000000000000000000000000000000000000081526004016120ed91906136cf565b60405180910390fd5b505b6040517f08c379a000000000000000000000000000000000000000000000000000000000815260040161212a9061502a565b60405180910390fd5b63f23a6e6160e01b7bffffffffffffffffffffffffffffffffffffffffffffffffffffffff1916817bffffffffffffffffffffffffffffffffffffffffffffffffffffffff1916146121ba576040517f08c379a00000000000000000000000000000000000000000000000000000000081526004016121b1906150bc565b60405180910390fd5b505b505050505050565b8151835114612208576040517f08c379a00000000000000000000000000000000000000000000000000000000081526004016121ff90614db1565b60405180910390fd5b600073ffffffffffffffffffffffffffffffffffffffff168473ffffffffffffffffffffffffffffffffffffffff1603612277576040517f08c379a000000000000000000000000000000000000000000000000000000000815260040161226e9061514e565b60405180910390fd5b6000612281611586565b9050612291818787878787611fcf565b60005b84518110156124455760008582815181106122b2576122b16146cd565b5b6020026020010151905060008583815181106122d1576122d06146cd565b5b6020026020010151905060006002600084815260200190815260200160002060008b73ffffffffffffffffffffffffffffffffffffffff1673ffffffffffffffffffffffffffffffffffffffff16815260200190815260200160002054905081811015612373576040517f08c379a000000000000000000000000000000000000000000000000000000000815260040161236a906151e0565b60405180910390fd5b8181036002600085815260200190815260200160002060008c73ffffffffffffffffffffffffffffffffffffffff1673ffffffffffffffffffffffffffffffffffffffff16815260200190815260200160002081905550816002600085815260200190815260200160002060008b73ffffffffffffffffffffffffffffffffffffffff1673ffffffffffffffffffffffffffffffffffffffff168152602001908152602001600020600082825461242a9190614451565b925050819055505050508061243e906146fc565b9050612294565b508473ffffffffffffffffffffffffffffffffffffffff168673ffffffffffffffffffffffffffffffffffffffff168273ffffffffffffffffffffffffffffffffffffffff167f4a39dc06d4c0dbc64b70af90fd698a233a518aa5d07e595d983b8c0526c8f7fb87876040516124bc929190614dd1565b60405180910390a46124d2818787878787611fe5565b6124e08187878787876129ca565b505050505050565b6124f9816124f4611586565b6130e0565b50565b6125068282611394565b61252b816001600085815260200190815260200160002061147490919063ffffffff16565b505050565b61253a828261317d565b61255f816001600085815260200190815260200160002061325e90919063ffffffff16565b505050565b61256c610ca9565b6125ab576040517f08c379a00000000000000000000000000000000000000000000000000000000081526004016125a29061524c565b60405180910390fd5b565b6125b5610ca9565b156125f5576040517f08c379a00000000000000000000000000000000000000000000000000000000081526004016125ec906152b8565b60405180910390fd5b565b600082600001828154811061260f5761260e6146cd565b5b9060005260206000200154905092915050565b606060006002836002612635919061440f565b61263f9190614451565b67ffffffffffffffff811115612658576126576136fb565b5b6040519080825280601f01601f19166020018201604052801561268a5781602001600182028036833780820191505090505b5090507f3000000000000000000000000000000000000000000000000000000000000000816000815181106126c2576126c16146cd565b5b60200101907effffffffffffffffffffffffffffffffffffffffffffffffffffffffffffff1916908160001a9053507f780000000000000000000000000000000000000000000000000000000000000081600181518110612726576127256146cd565b5b60200101907effffffffffffffffffffffffffffffffffffffffffffffffffffffffffffff1916908160001a90535060006001846002612766919061440f565b6127709190614451565b90505b6001811115612810577f3031323334353637383961626364656600000000000000000000000000000000600f8616601081106127b2576127b16146cd565b5b1a60f81b8282815181106127c9576127c86146cd565b5b60200101907effffffffffffffffffffffffffffffffffffffffffffffffffffffffffffff1916908160001a905350600485901c945080612809906152d8565b9050612773565b5060008414612854576040517f08c379a000000000000000000000000000000000000000000000000000000000815260040161284b9061534d565b60405180910390fd5b8091505092915050565b8173ffffffffffffffffffffffffffffffffffffffff168373ffffffffffffffffffffffffffffffffffffffff16036128cc576040517f08c379a00000000000000000000000000000000000000000000000000000000081526004016128c3906153df565b60405180910390fd5b80600360008573ffffffffffffffffffffffffffffffffffffffff1673ffffffffffffffffffffffffffffffffffffffff16815260200190815260200160002060008473ffffffffffffffffffffffffffffffffffffffff1673ffffffffffffffffffffffffffffffffffffffff16815260200190815260200160002060006101000a81548160ff0219169083151502179055508173ffffffffffffffffffffffffffffffffffffffff168373ffffffffffffffffffffffffffffffffffffffff167f17307eab39ab6107e8899845ad3d59bd9653f200f220920489ca2b5937696c31836040516129bd9190613624565b60405180910390a3505050565b6129e98473ffffffffffffffffffffffffffffffffffffffff166130bd565b15612b99578373ffffffffffffffffffffffffffffffffffffffff1663bc197c8187878686866040518663ffffffff1660e01b8152600401612a2f9594939291906153ff565b6020604051808303816000875af1925050508015612a6b57506040513d601f19601f82011682018060405250810190612a689190614ecc565b60015b612b1057612a77614f06565b806308c379a003612ad35750612a8b614f28565b80612a965750612ad5565b806040517f08c379a0000000000000000000000000000000000000000000000000000000008152600401612aca91906136cf565b60405180910390fd5b505b6040517f08c379a0000000000000000000000000000000000000000000000000000000008152600401612b079061502a565b60405180910390fd5b63bc197c8160e01b7bffffffffffffffffffffffffffffffffffffffffffffffffffffffff1916817bffffffffffffffffffffffffffffffffffffffffffffffffffffffff191614612b97576040517f08c379a0000000000000000000000000000000000000000000000000000000008152600401612b8e906150bc565b60405180910390fd5b505b505050505050565b600081600001805490509050919050565b600073ffffffffffffffffffffffffffffffffffffffff168473ffffffffffffffffffffffffffffffffffffffff1603612c21576040517f08c379a0000000000000000000000000000000000000000000000000000000008152600401612c189061514e565b60405180910390fd5b6000612c2b611586565b90506000612c3885611f55565b90506000612c4585611f55565b9050612c55838989858589611fcf565b60006002600088815260200190815260200160002060008a73ffffffffffffffffffffffffffffffffffffffff1673ffffffffffffffffffffffffffffffffffffffff16815260200190815260200160002054905085811015612ced576040517f08c379a0000000000000000000000000000000000000000000000000000000008152600401612ce4906151e0565b60405180910390fd5b8581036002600089815260200190815260200160002060008b73ffffffffffffffffffffffffffffffffffffffff1673ffffffffffffffffffffffffffffffffffffffff16815260200190815260200160002081905550856002600089815260200190815260200160002060008a73ffffffffffffffffffffffffffffffffffffffff1673ffffffffffffffffffffffffffffffffffffffff1681526020019081526020016000206000828254612da49190614451565b925050819055508773ffffffffffffffffffffffffffffffffffffffff168973ffffffffffffffffffffffffffffffffffffffff168573ffffffffffffffffffffffffffffffffffffffff167fc3d58168c5ae7397731d063d5bbf3d657854427343f4c083240f7aacaa2d0f628a8a604051612e21929190614bf2565b60405180910390a4612e37848a8a86868a611fe5565b612e45848a8a8a8a8a611fed565b505050505050505050565b600080836001016000848152602001908152602001600020541415905092915050565b60007f7965db0b000000000000000000000000000000000000000000000000000000007bffffffffffffffffffffffffffffffffffffffffffffffffffffffff1916827bffffffffffffffffffffffffffffffffffffffffffffffffffffffff19161480612ee65750612ee58261328e565b5b9050919050565b612efb8686868686866132f8565b600073ffffffffffffffffffffffffffffffffffffffff168573ffffffffffffffffffffffffffffffffffffffff1603612fac5760005b8351811015612faa57828181518110612f4e57612f4d6146cd565b5b602002602001015160066000868481518110612f6d57612f6c6146cd565b5b602002602001015181526020019081526020016000206000828254612f929190614451565b9250508190555080612fa3906146fc565b9050612f32565b505b600073ffffffffffffffffffffffffffffffffffffffff168473ffffffffffffffffffffffffffffffffffffffff16036130b55760005b83518110156130b3576000848281518110613001576130006146cd565b5b6020026020010151905060008483815181106130205761301f6146cd565b5b6020026020010151905060006006600084815260200190815260200160002054905081811015613085576040517f08c379a000000000000000000000000000000000000000000000000000000000815260040161307c906154d9565b60405180910390fd5b8181036006600085815260200190815260200160002081905550505050806130ac906146fc565b9050612fe3565b505b505050505050565b6000808273ffffffffffffffffffffffffffffffffffffffff163b119050919050565b6130ea8282610e3c565b6131795761310f8173ffffffffffffffffffffffffffffffffffffffff166014612622565b61311d8360001c6020612622565b60405160200161312e929190615591565b6040516020818303038152906040526040517f08c379a000000000000000000000000000000000000000000000000000000000815260040161317091906136cf565b60405180910390fd5b5050565b6131878282610e3c565b1561325a57600080600084815260200190815260200160002060000160008373ffffffffffffffffffffffffffffffffffffffff1673ffffffffffffffffffffffffffffffffffffffff16815260200190815260200160002060006101000a81548160ff0219169083151502179055506131ff611586565b73ffffffffffffffffffffffffffffffffffffffff168173ffffffffffffffffffffffffffffffffffffffff16837ff6391f5c32d9c69d2a47ea670b442974b53935d1edc7fd64eb21e047a839171b60405160405180910390a45b5050565b6000613286836000018373ffffffffffffffffffffffffffffffffffffffff1660001b613356565b905092915050565b60007f01ffc9a7000000000000000000000000000000000000000000000000000000007bffffffffffffffffffffffffffffffffffffffffffffffffffffffff1916827bffffffffffffffffffffffffffffffffffffffffffffffffffffffff1916149050919050565b61330686868686868661346a565b61330e610ca9565b1561334e576040517f08c379a00000000000000000000000000000000000000000000000000000000081526004016133459061563d565b60405180910390fd5b505050505050565b6000808360010160008481526020019081526020016000205490506000811461345e576000600182613388919061565d565b90506000600186600001805490506133a0919061565d565b905081811461340f5760008660000182815481106133c1576133c06146cd565b5b90600052602060002001549050808760000184815481106133e5576133e46146cd565b5b90600052602060002001819055508387600101600083815260200190815260200160002081905550505b8560000180548061342357613422615691565b5b600190038181906000526020600020016000905590558560010160008681526020019081526020016000206000905560019350505050613464565b60009150505b92915050565b505050505050565b6000604051905090565b600080fd5b600080fd5b600073ffffffffffffffffffffffffffffffffffffffff82169050919050565b60006134b182613486565b9050919050565b6134c1816134a6565b81146134cc57600080fd5b50565b6000813590506134de816134b8565b92915050565b6000819050919050565b6134f7816134e4565b811461350257600080fd5b50565b600081359050613514816134ee565b92915050565b600080604083850312156135315761353061347c565b5b600061353f858286016134cf565b925050602061355085828601613505565b9150509250929050565b613563816134e4565b82525050565b600060208201905061357e600083018461355a565b92915050565b60007fffffffff0000000000000000000000000000000000000000000000000000000082169050919050565b6135b981613584565b81146135c457600080fd5b50565b6000813590506135d6816135b0565b92915050565b6000602082840312156135f2576135f161347c565b5b6000613600848285016135c7565b91505092915050565b60008115159050919050565b61361e81613609565b82525050565b60006020820190506136396000830184613615565b92915050565b600081519050919050565b600082825260208201905092915050565b60005b8381101561367957808201518184015260208101905061365e565b60008484015250505050565b6000601f19601f8301169050919050565b60006136a18261363f565b6136ab818561364a565b93506136bb81856020860161365b565b6136c481613685565b840191505092915050565b600060208201905081810360008301526136e98184613696565b905092915050565b600080fd5b600080fd5b7f4e487b7100000000000000000000000000000000000000000000000000000000600052604160045260246000fd5b61373382613685565b810181811067ffffffffffffffff82111715613752576137516136fb565b5b80604052505050565b6000613765613472565b9050613771828261372a565b919050565b600067ffffffffffffffff821115613791576137906136fb565b5b61379a82613685565b9050602081019050919050565b82818337600083830152505050565b60006137c96137c484613776565b61375b565b9050828152602081018484840111156137e5576137e46136f6565b5b6137f08482856137a7565b509392505050565b600082601f83011261380d5761380c6136f1565b5b813561381d8482602086016137b6565b91505092915050565b60008060006060848603121561383f5761383e61347c565b5b600061384d86828701613505565b935050602061385e86828701613505565b925050604084013567ffffffffffffffff81111561387f5761387e613481565b5b61388b868287016137f8565b9150509250925092565b6000602082840312156138ab576138aa61347c565b5b60006138b984828501613505565b91505092915050565b6000819050919050565b6138d5816138c2565b81146138e057600080fd5b50565b6000813590506138f2816138cc565b92915050565b60006020828403121561390e5761390d61347c565b5b600061391c848285016138e3565b91505092915050565b61392e816138c2565b82525050565b60006020820190506139496000830184613925565b92915050565b600067ffffffffffffffff82111561396a576139696136fb565b5b602082029050602081019050919050565b600080fd5b600061399361398e8461394f565b61375b565b905080838252602082019050602084028301858111156139b6576139b561397b565b5b835b818110156139df57806139cb8882613505565b8452602084019350506020810190506139b8565b5050509392505050565b600082601f8301126139fe576139fd6136f1565b5b8135613a0e848260208601613980565b91505092915050565b600080600080600060a08688031215613a3357613a3261347c565b5b6000613a41888289016134cf565b9550506020613a52888289016134cf565b945050604086013567ffffffffffffffff811115613a7357613a72613481565b5b613a7f888289016139e9565b935050606086013567ffffffffffffffff811115613aa057613a9f613481565b5b613aac888289016139e9565b925050608086013567ffffffffffffffff811115613acd57613acc613481565b5b613ad9888289016137f8565b9150509295509295909350565b60008060408385031215613afd57613afc61347c565b5b6000613b0b858286016138e3565b9250506020613b1c858286016134cf565b9150509250929050565b600060208284031215613b3c57613b3b61347c565b5b6000613b4a848285016134cf565b91505092915050565b600067ffffffffffffffff821115613b6e57613b6d6136fb565b5b602082029050602081019050919050565b6000613b92613b8d84613b53565b61375b565b90508083825260208201905060208402830185811115613bb557613bb461397b565b5b835b81811015613bde5780613bca88826134cf565b845260208401935050602081019050613bb7565b5050509392505050565b600082601f830112613bfd57613bfc6136f1565b5b8135613c0d848260208601613b7f565b91505092915050565b60008060408385031215613c2d57613c2c61347c565b5b600083013567ffffffffffffffff811115613c4b57613c4a613481565b5b613c5785828601613be8565b925050602083013567ffffffffffffffff811115613c7857613c77613481565b5b613c84858286016139e9565b9150509250929050565b600081519050919050565b600082825260208201905092915050565b6000819050602082019050919050565b613cc3816134e4565b82525050565b6000613cd58383613cba565b60208301905092915050565b6000602082019050919050565b6000613cf982613c8e565b613d038185613c99565b9350613d0e83613caa565b8060005b83811015613d3f578151613d268882613cc9565b9750613d3183613ce1565b925050600181019050613d12565b5085935050505092915050565b60006020820190508181036000830152613d668184613cee565b905092915050565b60008060408385031215613d8557613d8461347c565b5b6000613d93858286016138e3565b9250506020613da485828601613505565b9150509250929050565b613db7816134a6565b82525050565b6000602082019050613dd26000830184613dae565b92915050565b613de181613609565b8114613dec57600080fd5b50565b600081359050613dfe81613dd8565b92915050565b60008060408385031215613e1b57613e1a61347c565b5b6000613e29858286016134cf565b9250506020613e3a85828601613def565b9150509250929050565b600080600060608486031215613e5d57613e5c61347c565b5b600084013567ffffffffffffffff811115613e7b57613e7a613481565b5b613e87868287016139e9565b935050602084013567ffffffffffffffff811115613ea857613ea7613481565b5b613eb4868287016139e9565b925050604084013567ffffffffffffffff811115613ed557613ed4613481565b5b613ee1868287016137f8565b9150509250925092565b60008060408385031215613f0257613f0161347c565b5b6000613f10858286016134cf565b9250506020613f21858286016134cf565b9150509250929050565b600080600080600060a08688031215613f4757613f4661347c565b5b6000613f55888289016134cf565b9550506020613f66888289016134cf565b9450506040613f7788828901613505565b9350506060613f8888828901613505565b925050608086013567ffffffffffffffff811115613fa957613fa8613481565b5b613fb5888289016137f8565b9150509295509295909350565b7f455243313135353a2061646472657373207a65726f206973206e6f742061207660008201527f616c6964206f776e657200000000000000000000000000000000000000000000602082015250565b600061401e602a8361364a565b915061402982613fc2565b604082019050919050565b6000602082019050818103600083015261404d81614011565b9050919050565b7f4e487b7100000000000000000000000000000000000000000000000000000000600052602260045260246000fd5b6000600282049050600182168061409b57607f821691505b6020821081036140ae576140ad614054565b5b50919050565b600081905092915050565b7f455243313135355072657365744d696e7465725061757365723a000000000000600082015250565b60006140f5601a836140b4565b9150614100826140bf565b601a82019050919050565b60008160601b9050919050565b60006141238261410b565b9050919050565b600061413582614118565b9050919050565b61414d614148826134a6565b61412a565b82525050565b7f6d7573742062652077686974656c697374656400000000000000000000000000600082015250565b60006141896013836140b4565b915061419482614153565b601382019050919050565b60006141aa826140e8565b91506141b6828461413c565b6014820191506141c58261417c565b915081905092915050565b7f455243313135355072657365744d696e7465725061757365723a206d7573742060008201527f68617665206d696e74657220726f6c6520746f206d696e740000000000000000602082015250565b600061422c60388361364a565b9150614237826141d0565b604082019050919050565b6000602082019050818103600083015261425b8161421f565b9050919050565b7f4e487b7100000000000000000000000000000000000000000000000000000000600052601160045260246000fd5b60008160011c9050919050565b6000808291508390505b60018511156142e8578086048111156142c4576142c3614262565b5b60018516156142d35780820291505b80810290506142e185614291565b94506142a8565b94509492505050565b60008261430157600190506143bd565b8161430f57600090506143bd565b8160018114614325576002811461432f5761435e565b60019150506143bd565b60ff84111561434157614340614262565b5b8360020a91508482111561435857614357614262565b5b506143bd565b5060208310610133831016604e8410600b84101617156143935782820a90508381111561438e5761438d614262565b5b6143bd565b6143a0848484600161429e565b925090508184048111156143b7576143b6614262565b5b81810290505b9392505050565b60006143cf826134e4565b91506143da836134e4565b92506144077fffffffffffffffffffffffffffffffffffffffffffffffffffffffffffffffff84846142f1565b905092915050565b600061441a826134e4565b9150614425836134e4565b9250828202614433816134e4565b9150828204841483151761444a57614449614262565b5b5092915050565b600061445c826134e4565b9150614467836134e4565b925082820190508082111561447f5761447e614262565b5b92915050565b7f4d6178696d756d20737570706c79206f662031303020746f6b656e732069732060008201527f7265616368656400000000000000000000000000000000000000000000000000602082015250565b60006144e160278361364a565b91506144ec82614485565b604082019050919050565b60006020820190508181036000830152614510816144d4565b9050919050565b7f53656e646572206f72207265636569766572206973206e6f742077686974656c60008201527f6973746564000000000000000000000000000000000000000000000000000000602082015250565b600061457360258361364a565b915061457e82614517565b604082019050919050565b600060208201905081810360008301526145a281614566565b9050919050565b7f455243313135355072657365744d696e7465725061757365723a206d7573742060008201527f686176652070617573657220726f6c6520746f20756e70617573650000000000602082015250565b6000614605603b8361364a565b9150614610826145a9565b604082019050919050565b60006020820190508181036000830152614634816145f8565b9050919050565b7f455243313135353a206163636f756e747320616e6420696473206c656e67746860008201527f206d69736d617463680000000000000000000000000000000000000000000000602082015250565b600061469760298361364a565b91506146a28261463b565b604082019050919050565b600060208201905081810360008301526146c68161468a565b9050919050565b7f4e487b7100000000000000000000000000000000000000000000000000000000600052603260045260246000fd5b6000614707826134e4565b91507fffffffffffffffffffffffffffffffffffffffffffffffffffffffffffffffff820361473957614738614262565b5b600182019050919050565b7f455243313135355072657365744d696e7465725061757365723a206d7573742060008201527f686176652070617573657220726f6c6520746f20706175736500000000000000602082015250565b60006147a060398361364a565b91506147ab82614744565b604082019050919050565b600060208201905081810360008301526147cf81614793565b9050919050565b7f455243313135355072657365744d696e7465725061757365723a206d7573742060008201527f686176652061646d696e20726f6c6520746f2072656d6f76652061646472657360208201527f73657320746f2077686974656c69737400000000000000000000000000000000604082015250565b600061485860508361364a565b9150614863826147d6565b606082019050919050565b600060208201905081810360008301526148878161484b565b9050919050565b7f4f70657261746f723a2000000000000000000000000000000000000000000000600082015250565b60006148c4600a836140b4565b91506148cf8261488e565b600a82019050919050565b60006148e58261363f565b6148ef81856140b4565b93506148ff81856020860161365b565b80840191505092915050565b7f206973206e6f742077686974656c697374656400000000000000000000000000600082015250565b60006149416013836140b4565b915061494c8261490b565b601382019050919050565b6000614962826148b7565b915061496e82846148da565b915061497982614934565b915081905092915050565b7f496473206d757374206e6f742062652072657065617461626c65000000000000600082015250565b60006149ba601a8361364a565b91506149c582614984565b602082019050919050565b600060208201905081810360008301526149e9816149ad565b9050919050565b7f4174206c65617374206f6e652070726f7065727479206578636565646564206d60008201527f617820737570706c79206f662031303020746f6b656e732c207472616e73616360208201527f74696f6e20726576657274656400000000000000000000000000000000000000604082015250565b6000614a72604d8361364a565b9150614a7d826149f0565b606082019050919050565b60006020820190508181036000830152614aa181614a65565b9050919050565b7f455243313135355072657365744d696e7465725061757365723a206d7573742060008201527f686176652061646d696e20726f6c6520746f206164642061646472657373657360208201527f20746f2077686974656c69737400000000000000000000000000000000000000604082015250565b6000614b2a604d8361364a565b9150614b3582614aa8565b606082019050919050565b60006020820190508181036000830152614b5981614b1d565b9050919050565b7f455243313135353a206d696e7420746f20746865207a65726f2061646472657360008201527f7300000000000000000000000000000000000000000000000000000000000000602082015250565b6000614bbc60218361364a565b9150614bc782614b60565b604082019050919050565b60006020820190508181036000830152614beb81614baf565b9050919050565b6000604082019050614c07600083018561355a565b614c14602083018461355a565b9392505050565b7f455243313135353a2063616c6c6572206973206e6f7420746f6b656e206f776e60008201527f6572206e6f7220617070726f7665640000000000000000000000000000000000602082015250565b6000614c77602f8361364a565b9150614c8282614c1b565b604082019050919050565b60006020820190508181036000830152614ca681614c6a565b9050919050565b7f416363657373436f6e74726f6c3a2063616e206f6e6c792072656e6f756e636560008201527f20726f6c657320666f722073656c660000000000000000000000000000000000602082015250565b6000614d09602f8361364a565b9150614d1482614cad565b604082019050919050565b60006020820190508181036000830152614d3881614cfc565b9050919050565b7f455243313135353a2069647320616e6420616d6f756e7473206c656e6774682060008201527f6d69736d61746368000000000000000000000000000000000000000000000000602082015250565b6000614d9b60288361364a565b9150614da682614d3f565b604082019050919050565b60006020820190508181036000830152614dca81614d8e565b9050919050565b60006040820190508181036000830152614deb8185613cee565b90508181036020830152614dff8184613cee565b90509392505050565b600081519050919050565b600082825260208201905092915050565b6000614e2f82614e08565b614e398185614e13565b9350614e4981856020860161365b565b614e5281613685565b840191505092915050565b600060a082019050614e726000830188613dae565b614e7f6020830187613dae565b614e8c604083018661355a565b614e99606083018561355a565b8181036080830152614eab8184614e24565b90509695505050505050565b600081519050614ec6816135b0565b92915050565b600060208284031215614ee257614ee161347c565b5b6000614ef084828501614eb7565b91505092915050565b60008160e01c9050919050565b600060033d1115614f255760046000803e614f22600051614ef9565b90505b90565b600060443d10614fb557614f3a613472565b60043d036004823e80513d602482011167ffffffffffffffff82111715614f62575050614fb5565b808201805167ffffffffffffffff811115614f805750505050614fb5565b80602083010160043d038501811115614f9d575050505050614fb5565b614fac8260200185018661372a565b82955050505050505b90565b7f455243313135353a207472616e7366657220746f206e6f6e204552433131353560008201527f526563656976657220696d706c656d656e746572000000000000000000000000602082015250565b600061501460348361364a565b915061501f82614fb8565b604082019050919050565b6000602082019050818103600083015261504381615007565b9050919050565b7f455243313135353a204552433131353552656365697665722072656a6563746560008201527f6420746f6b656e73000000000000000000000000000000000000000000000000602082015250565b60006150a660288361364a565b91506150b18261504a565b604082019050919050565b600060208201905081810360008301526150d581615099565b9050919050565b7f455243313135353a207472616e7366657220746f20746865207a65726f20616460008201527f6472657373000000000000000000000000000000000000000000000000000000602082015250565b600061513860258361364a565b9150615143826150dc565b604082019050919050565b600060208201905081810360008301526151678161512b565b9050919050565b7f455243313135353a20696e73756666696369656e742062616c616e636520666f60008201527f72207472616e7366657200000000000000000000000000000000000000000000602082015250565b60006151ca602a8361364a565b91506151d58261516e565b604082019050919050565b600060208201905081810360008301526151f9816151bd565b9050919050565b7f5061757361626c653a206e6f7420706175736564000000000000000000000000600082015250565b600061523660148361364a565b915061524182615200565b602082019050919050565b6000602082019050818103600083015261526581615229565b9050919050565b7f5061757361626c653a2070617573656400000000000000000000000000000000600082015250565b60006152a260108361364a565b91506152ad8261526c565b602082019050919050565b600060208201905081810360008301526152d181615295565b9050919050565b60006152e3826134e4565b9150600082036152f6576152f5614262565b5b600182039050919050565b7f537472696e67733a20686578206c656e67746820696e73756666696369656e74600082015250565b600061533760208361364a565b915061534282615301565b602082019050919050565b600060208201905081810360008301526153668161532a565b9050919050565b7f455243313135353a2073657474696e6720617070726f76616c2073746174757360008201527f20666f722073656c660000000000000000000000000000000000000000000000602082015250565b60006153c960298361364a565b91506153d48261536d565b604082019050919050565b600060208201905081810360008301526153f8816153bc565b9050919050565b600060a0820190506154146000830188613dae565b6154216020830187613dae565b81810360408301526154338186613cee565b905081810360608301526154478185613cee565b9050818103608083015261545b8184614e24565b90509695505050505050565b7f455243313135353a206275726e20616d6f756e74206578636565647320746f7460008201527f616c537570706c79000000000000000000000000000000000000000000000000602082015250565b60006154c360288361364a565b91506154ce82615467565b604082019050919050565b600060208201905081810360008301526154f2816154b6565b9050919050565b7f416363657373436f6e74726f6c3a206163636f756e7420000000000000000000600082015250565b600061552f6017836140b4565b915061553a826154f9565b601782019050919050565b7f206973206d697373696e6720726f6c6520000000000000000000000000000000600082015250565b600061557b6011836140b4565b915061558682615545565b601182019050919050565b600061559c82615522565b91506155a882856148da565b91506155b38261556e565b91506155bf82846148da565b91508190509392505050565b7f455243313135355061757361626c653a20746f6b656e207472616e736665722060008201527f7768696c65207061757365640000000000000000000000000000000000000000602082015250565b6000615627602c8361364a565b9150615632826155cb565b604082019050919050565b600060208201905081810360008301526156568161561a565b9050919050565b6000615668826134e4565b9150615673836134e4565b925082820390508181111561568b5761568a614262565b5b92915050565b7f4e487b7100000000000000000000000000000000000000000000000000000000600052603160045260246000fdfea26469706673582212200d8a42df0291f5c9f332b45b3e706fd5b177a72008a45aaaba460b3f7db5d44364736f6c63430008110033",
  "immutableReferences": {},
  "source": "// SPDX-License-Identifier: MIT\n\npragma solidity ^0.8.0;\n\nimport \"@openzeppelin/contracts/token/ERC1155/ERC1155.sol\";\nimport \"@openzeppelin/contracts/token/ERC1155/extensions/ERC1155Burnable.sol\";\nimport \"@openzeppelin/contracts/token/ERC1155/extensions/ERC1155Pausable.sol\";\nimport \"@openzeppelin/contracts/access/AccessControlEnumerable.sol\";\nimport \"@openzeppelin/contracts/utils/Context.sol\";\nimport \"@openzeppelin/contracts/token/ERC1155/extensions/ERC1155Supply.sol\";\nimport \"./Whitelist.sol\";\nimport \"./IERC1155PresetMinterPauserSupply.sol\";\n\n/**\n * @dev {ERC1155} token, including:\n *  - a minter role that allows for token minting (creation)\n *  - a pauser role that allows to stop all token transfers\n *\n * This contract uses {AccessControl} to lock permissioned functions using the\n * different roles\n *\n * The account that deploys the contract will be granted the minter and pauser\n * roles, as well as the default admin role, which will let it grant both minter\n * and pauser roles to other accounts.\n */\ncontract ERC1155PresetMinterPauserSupply is IERC1155PresetMinterPauserSupply ,Context, AccessControlEnumerable, ERC1155Pausable, ERC1155Supply, Whitelist{\n    bytes32 public constant MINTER_ROLE = keccak256(\"MINTER_ROLE\");\n    bytes32 public constant PAUSER_ROLE = keccak256(\"PAUSER_ROLE\");\n\n    uint256 private decimals;\n    string public name;\n\n    /**\n     * @dev Grants `DEFAULT_ADMIN_ROLE`, `MINTER_ROLE`, and `PAUSER_ROLE` to the account that\n     * deploys the contract and whitelists it.\n     */\n    constructor(string memory uri, uint256 _decimals) ERC1155(uri) {\n        require(_decimals <= 5, \"Maximum of 5 decimals\");\n        _setupRole(DEFAULT_ADMIN_ROLE, _msgSender());\n\n        _setupRole(MINTER_ROLE, _msgSender());\n        _setupRole(PAUSER_ROLE, _msgSender());\n\n        _addToWhitelist(_msgSender());\n        name = \"GroundZero\";\n        decimals = _decimals;\n\n        emit Deployed(_msgSender(), block.timestamp);\n    }\n\n    /**\n     * @dev Returns the number of decimals of the smart contract.\n     */\n    function getDecimals() public view virtual override returns(uint256) {\n        return decimals;\n    } \n\n    /**\n     * @dev Creates `amount` new tokens for `to`, of token type `id`.\n     *\n     * See {ERC1155-_mint}.\n     *\n     * Requirements:\n     *\n     * - the caller must first be whitelisted.\n     * - the caller must have the `MINTER_ROLE`.\n     * - maximum supply of each token must not exceed 100 or 100 * 10 ** decimals\n     */\n    function mint(\n        uint256 id,\n        uint256 amount, //amount should be input of real amount * 10 ** decimals\n        bytes memory data\n    ) public virtual override checkWhitelist(_msgSender()) {\n        require(hasRole(MINTER_ROLE, _msgSender()), \"ERC1155PresetMinterPauser: must have minter role to mint\");\n        \n        require(amount + totalSupply(id) <= 100 * 10 ** decimals, \"Maximum supply of 100 tokens is reached\");\n\n        _mint(_msgSender(), id, amount, data);\n    }\n\n    /**\n     * @dev Batched variant of {mint}.\n     *\n     * Requirements:\n     *\n     * - the caller must first be whitelisted.\n     */\n\n    function mintBatch(\n        uint256[] memory ids,\n        uint256[] memory amounts, //amounts should be input of real amounts[] * 10 ** decimals\n        bytes memory data\n    ) public virtual override checkWhitelist(_msgSender()) {\n        require(hasRole(MINTER_ROLE, _msgSender()), \"ERC1155PresetMinterPauser: must have minter role to mint\");\n\n        for (uint256 i = 0; i < ids.length; i++) {\n            \n            for (uint256 j = i + 1; j < ids.length; j++) {\n                require(ids[i] != ids[j], \"Ids must not be repeatable\");\n            }\n\n            require(amounts[i] + totalSupply(ids[i]) <= 100 * 10 ** decimals, \"At least one property exceeded max supply of 100 tokens, transaction reverted\");\n        }\n\n        _mintBatch(_msgSender(), ids, amounts, data);\n    }\n\n    /**\n     * @dev Transfers `amount` tokens of token type `id` from `from` to `to`.\n     *\n     * Emits a {TransferSingle} event.\n     *\n     * Requirements:\n     *\n     * - `from` and `to` must be whitelisted.\n     * - `to` cannot be the zero address.\n     * - If the caller is not `from`, it must have been approved to spend ``from``'s tokens via {setApprovalForAll}.\n     * - `from` must have a balance of tokens of type `id` of at least `amount`.\n     * - If `to` refers to a smart contract, it must implement {IERC1155Receiver-onERC1155Received} and return the\n     * acceptance magic value.\n     *\n     */\n    function safeTransferFrom(address from, address to, uint256 id, uint256 amount, bytes memory data) public virtual override(ERC1155, IERC1155PresetMinterPauserSupply) {\n        require((_isWhitelisted(from) && _isWhitelisted(to)), \"Sender or receiver is not whitelisted\");\n        \n        super.safeTransferFrom(from, to, id, amount, data);\n    }\n\n    /**\n     * @dev xref:ROOT:erc1155.adoc#batch-operations[Batched] version of {safeTransferFrom}.\n     *\n     * Emits a {TransferBatch} event.\n     *\n     * Requirements:\n     *\n     * - `from` and `to` must be whitelisted.\n     * - `ids` and `amounts` must have the same length.\n     * - If `to` refers to a smart contract, it must implement {IERC1155Receiver-onERC1155BatchReceived} and return the\n     * acceptance magic value.\n     */\n    function safeBatchTransferFrom(address from, address to, uint256[] memory ids, uint256[] memory amounts, bytes memory data) public virtual override(ERC1155, IERC1155PresetMinterPauserSupply) {\n        require((_isWhitelisted(from) && _isWhitelisted(to)), \"Sender or receiver is not whitelisted\");\n\n        super.safeBatchTransferFrom(from, to, ids, amounts, data);\n    }\n\n    /**\n     * @dev Grants or revokes permission to `operator` to transfer the caller's tokens, according to `approved`,\n     *\n     * Emits an {ApprovalForAll} event.\n     *\n     * Requirements:\n     *\n     * - `operator` must be whitelisted.\n     * - `operator` cannot be the caller.\n     */\n    function setApprovalForAll(address operator, bool approved) public virtual override(ERC1155, IERC1155PresetMinterPauserSupply) {\n        require(_isWhitelisted(operator), string(abi.encodePacked(\"Operator: \", Strings.toHexString(operator), \" is not whitelisted\")));\n        \n        super.setApprovalForAll(operator, approved);\n    }\n\n    /**\n     * @dev Pauses all token transfers.\n     *\n     * See {ERC1155Pausable} and {Pausable-_pause}.\n     *\n     * Requirements:\n     *\n     * - the caller must first be whitelisted.\n     * - the caller must have the `PAUSER_ROLE`.\n     */\n    function pause() public virtual override checkWhitelist(_msgSender()) { \n        require(hasRole(PAUSER_ROLE, _msgSender()), \"ERC1155PresetMinterPauser: must have pauser role to pause\");\n        _pause();\n    }\n\n    /**\n     * @dev Unpauses all token transfers.\n     *\n     * See {ERC1155Pausable} and {Pausable-_unpause}.\n     *\n     * Requirements:\n     *\n     * - the caller must first be whitelisted.\n     * - the caller must have the `PAUSER_ROLE`.\n     */\n    function unpause() public virtual override checkWhitelist(_msgSender()) {\n        require(hasRole(PAUSER_ROLE, _msgSender()), \"ERC1155PresetMinterPauser: must have pauser role to unpause\");\n        _unpause();\n    }\n\n    /**\n     * @dev See {IERC165-supportsInterface}.\n     */\n    function supportsInterface(bytes4 interfaceId)\n        public\n        view\n        virtual\n        override(AccessControlEnumerable, ERC1155, IERC1155PresetMinterPauserSupply)\n        returns (bool)\n    {\n        return super.supportsInterface(interfaceId);\n    }\n\n    function _beforeTokenTransfer(\n        address operator,\n        address from,\n        address to,\n        uint256[] memory ids,\n        uint256[] memory amounts,\n        bytes memory data\n    ) internal virtual override(ERC1155Pausable, ERC1155Supply) {\n        super._beforeTokenTransfer(operator, from, to, ids, amounts, data);\n    }\n\n    /**\n     * @dev Grants `role` to `account`\n     *\n     * If `account` had not been already granted `role`, emits a {RoleGranted}\n     * event.\n     *\n     * Requirements:\n     *\n     *  - the `account` must be whitelisted.\n     *  - the caller must have `role`'s admin role.\n     *\n     * May emit a {RoleGranted} event.\n     */\n    function grantRole(bytes32 role, address account) public virtual override(IAccessControl, AccessControl, IERC1155PresetMinterPauserSupply) checkWhitelist(account) {\n        super.grantRole(role, account);\n    }\n\n    /**\n     * @dev Revokes `role` from `account`\n     *\n     * If `account` had been granted `role`, emits a {RoleRevoked} event.\n     *\n     * Requirements:\n     *\n     * - the caller must have ``role``'s admin role.\n     *\n     * May emit a {RoleRevoked} event.\n     */\n    function revokeRole(bytes32 role, address account) public virtual override(IAccessControl, AccessControl, IERC1155PresetMinterPauserSupply) {\n        super.revokeRole(role, account);\n    }\n\n    /**\n     * @dev Revokes `role` from the calling account\n     *\n     * Roles are often managed via {grantRole} and {revokeRole}: this function's\n     * purpose is to provide a mechanism for accounts to lose their privileges\n     * if they are compromised (such as when a trusted device is misplaced).\n     *\n     * If the calling account had been revoked `role`, emits a {RoleRevoked}\n     * event.\n     *\n     * Requirements:\n     *\n     * - the caller must be `account`.\n     *\n     * May emit a {RoleRevoked} event.\n     */\n    function renounceRole(bytes32 role, address account) public virtual override(IAccessControl, AccessControl, IERC1155PresetMinterPauserSupply) {\n        super.renounceRole(role, account);\n    }\n\n    /**\n     * @dev Returns if `account` is whitelisted or not.\n     *\n     */\n    function isWhitelisted(address account) public view virtual override returns(bool){\n       return _isWhitelisted(account);\n    }\n\n    /**\n     * @dev Whitelists `account`.\n     *\n     * Requirements:\n     *\n     * - the caller must have DEFAULT_ADMIN_ROLE role.\n     *\n     * Emits a {AddedToWhitelist} event.\n     */\n    function addToWhitelist(address account) public virtual override {\n        require(hasRole(DEFAULT_ADMIN_ROLE, _msgSender()), \"ERC1155PresetMinterPauser: must have admin role to add addresses to whitelist\");\n\n        _addToWhitelist(account);\n    }\n\n    /**\n     * @dev Removes `account` from whitelist.\n     *\n     * Requirements:\n     *\n     * - the caller must have DEFAULT_ADMIN_ROLE role.\n     *\n     * Emits a {RemovedFromWhitelist} event.\n     */\n    function removeFromWhitelist(address account) public virtual override {\n        require(hasRole(DEFAULT_ADMIN_ROLE, _msgSender()), \"ERC1155PresetMinterPauser: must have admin role to remove addresses to whitelist\");\n\n        _removeFromWhitelist(account);\n    }\n}",
  "sourcePath": "/home/fabio/Desktop/asset-tokenization-hapi/deployment/contracts/ERC1155PresetMinterPauserSupply.sol",
  "compiler": {
    "name": "solc",
    "version": "0.8.17+commit.8df45f5f.Emscripten.clang"
  },
  "schemaVersion": "3.4.10",
  "updatedAt": "2022-12-09T10:23:02.690Z",
  "networkType": "ethereum",
  "devdoc": {
    "details": "{ERC1155} token, including:  - a minter role that allows for token minting (creation)  - a pauser role that allows to stop all token transfers This contract uses {AccessControl} to lock permissioned functions using the different roles The account that deploys the contract will be granted the minter and pauser roles, as well as the default admin role, which will let it grant both minter and pauser roles to other accounts.",
    "kind": "dev",
    "methods": {
      "addToWhitelist(address)": {
        "details": "Whitelists `account`. Requirements: - the caller must have DEFAULT_ADMIN_ROLE role. Emits a {AddedToWhitelist} event."
      },
      "balanceOf(address,uint256)": {
        "details": "See {IERC1155-balanceOf}. Requirements: - `account` cannot be the zero address."
      },
      "balanceOfBatch(address[],uint256[])": {
        "details": "See {IERC1155-balanceOfBatch}. Requirements: - `accounts` and `ids` must have the same length."
      },
      "constructor": {
        "details": "Grants `DEFAULT_ADMIN_ROLE`, `MINTER_ROLE`, and `PAUSER_ROLE` to the account that deploys the contract and whitelists it."
      },
      "exists(uint256)": {
        "details": "Indicates whether any token exist with a given id, or not."
      },
      "getDecimals()": {
        "details": "Returns the number of decimals of the smart contract."
      },
      "getRoleAdmin(bytes32)": {
        "details": "Returns the admin role that controls `role`. See {grantRole} and {revokeRole}. To change a role's admin, use {_setRoleAdmin}."
      },
      "getRoleMember(bytes32,uint256)": {
        "details": "Returns one of the accounts that have `role`. `index` must be a value between 0 and {getRoleMemberCount}, non-inclusive. Role bearers are not sorted in any particular way, and their ordering may change at any point. WARNING: When using {getRoleMember} and {getRoleMemberCount}, make sure you perform all queries on the same block. See the following https://forum.openzeppelin.com/t/iterating-over-elements-on-enumerableset-in-openzeppelin-contracts/2296[forum post] for more information."
      },
      "getRoleMemberCount(bytes32)": {
        "details": "Returns the number of accounts that have `role`. Can be used together with {getRoleMember} to enumerate all bearers of a role."
      },
      "grantRole(bytes32,address)": {
        "details": "Grants `role` to `account` If `account` had not been already granted `role`, emits a {RoleGranted} event. Requirements:  - the `account` must be whitelisted.  - the caller must have `role`'s admin role. May emit a {RoleGranted} event."
      },
      "hasRole(bytes32,address)": {
        "details": "Returns `true` if `account` has been granted `role`."
      },
      "isApprovedForAll(address,address)": {
        "details": "See {IERC1155-isApprovedForAll}."
      },
      "isWhitelisted(address)": {
        "details": "Returns if `account` is whitelisted or not."
      },
      "mint(uint256,uint256,bytes)": {
        "details": "Creates `amount` new tokens for `to`, of token type `id`. See {ERC1155-_mint}. Requirements: - the caller must first be whitelisted. - the caller must have the `MINTER_ROLE`. - maximum supply of each token must not exceed 100 or 100 * 10 ** decimals"
      },
      "mintBatch(uint256[],uint256[],bytes)": {
        "details": "Batched variant of {mint}. Requirements: - the caller must first be whitelisted."
      },
      "pause()": {
        "details": "Pauses all token transfers. See {ERC1155Pausable} and {Pausable-_pause}. Requirements: - the caller must first be whitelisted. - the caller must have the `PAUSER_ROLE`."
      },
      "paused()": {
        "details": "Returns true if the contract is paused, and false otherwise."
      },
      "removeFromWhitelist(address)": {
        "details": "Removes `account` from whitelist. Requirements: - the caller must have DEFAULT_ADMIN_ROLE role. Emits a {RemovedFromWhitelist} event."
      },
      "renounceRole(bytes32,address)": {
        "details": "Revokes `role` from the calling account Roles are often managed via {grantRole} and {revokeRole}: this function's purpose is to provide a mechanism for accounts to lose their privileges if they are compromised (such as when a trusted device is misplaced). If the calling account had been revoked `role`, emits a {RoleRevoked} event. Requirements: - the caller must be `account`. May emit a {RoleRevoked} event."
      },
      "revokeRole(bytes32,address)": {
        "details": "Revokes `role` from `account` If `account` had been granted `role`, emits a {RoleRevoked} event. Requirements: - the caller must have ``role``'s admin role. May emit a {RoleRevoked} event."
      },
      "safeBatchTransferFrom(address,address,uint256[],uint256[],bytes)": {
        "details": "xref:ROOT:erc1155.adoc#batch-operations[Batched] version of {safeTransferFrom}. Emits a {TransferBatch} event. Requirements: - `from` and `to` must be whitelisted. - `ids` and `amounts` must have the same length. - If `to` refers to a smart contract, it must implement {IERC1155Receiver-onERC1155BatchReceived} and return the acceptance magic value."
      },
      "safeTransferFrom(address,address,uint256,uint256,bytes)": {
        "details": "Transfers `amount` tokens of token type `id` from `from` to `to`. Emits a {TransferSingle} event. Requirements: - `from` and `to` must be whitelisted. - `to` cannot be the zero address. - If the caller is not `from`, it must have been approved to spend ``from``'s tokens via {setApprovalForAll}. - `from` must have a balance of tokens of type `id` of at least `amount`. - If `to` refers to a smart contract, it must implement {IERC1155Receiver-onERC1155Received} and return the acceptance magic value."
      },
      "setApprovalForAll(address,bool)": {
        "details": "Grants or revokes permission to `operator` to transfer the caller's tokens, according to `approved`, Emits an {ApprovalForAll} event. Requirements: - `operator` must be whitelisted. - `operator` cannot be the caller."
      },
      "supportsInterface(bytes4)": {
        "details": "See {IERC165-supportsInterface}."
      },
      "totalSupply(uint256)": {
        "details": "Total amount of tokens in with a given id."
      },
      "unpause()": {
        "details": "Unpauses all token transfers. See {ERC1155Pausable} and {Pausable-_unpause}. Requirements: - the caller must first be whitelisted. - the caller must have the `PAUSER_ROLE`."
      },
      "uri(uint256)": {
        "details": "See {IERC1155MetadataURI-uri}. This implementation returns the same URI for *all* token types. It relies on the token type ID substitution mechanism https://eips.ethereum.org/EIPS/eip-1155#metadata[defined in the EIP]. Clients calling this function must replace the `\\{id\\}` substring with the actual token type ID."
      }
    },
    "version": 1
  },
  "userdoc": {
    "kind": "user",
    "methods": {},
    "version": 1
  }
}